:020000040800F2
:10000000103800203502000879230008D51F0008A9
:1000100075230008E5040008912500080000000091
:10002000000000000000000000000000B9230008EC
:10003000F9040008000000007D230008ED230008FB
:100040004F0200084F0200084F0200084F0200084C
:100050004F0200084F0200084F0200084F0200083C
:100060004F0200084F0200084F0200084F0200082C
:100070004F0200084F0200084F0200084F0200081C
:100080004F0200084F0200084F0200080000000065
:100090000000000000000000000000004F02000807
:1000A0004F0200084F0200084F0200084F020008EC
:1000B0004F0200084F0200084F0200084F020008DC
:1000C0004F0200084F0200084F0200084F020008CC
:1000D0004F0200084F0200084F0200080000000015
:1000E0004F0200084F0200084F0200080000000005
:1000F0000000000000000000000000004F020008A7
:10010000000000004F0200084F0200084F020008E4
:1001100000000000000000000000000000000000DF
:10012000E90400084F0200084F0200084F020008CF
:100130004F02000800000000000000000000000066
:100140000000000000000000000000004F02000856
:100150004F0200084F0200084F0200084F0200083B
:100160004F0200084F0200080000000000000000DD
:10017000000000000000000000000000000000007F
:10018000000000004F020008000000000000000016
:100190004F02000800F002F800F03CF80AA090E8D6
:1001A000000C82448344AAF10107DA4501D100F032
:1001B00031F8AFF2090EBAE80F0013F0010F18BFC3
:1001C000FB1A43F001031847F0B9000010BA000011
:1001D000103A24BF78C878C1FAD8520724BF30C873
:1001E00030C144BF04680C60704700000023002445
:1001F00000250026103A28BF78C1FBD8520728BF37
:1002000030C148BF0B6070471FB503F0B3F81FBD86
:1002100010B510BD00F0E4F81146FFF7F5FF03F04C
:1002200065F800F002F903B4FFF7F2FF03BC00F039
:1002300005F900000948804709480047FEE7FEE746
:10024000FEE7FEE7FEE7FEE7FEE7FEE7FEE7FEE786
:1002500004480549054A064B70470000A1240008E0
:1002600095010008103200201038002010340020C2
:100270001034002053EA020C00F069802DE9F04BA5
:100280004FF00006002B1FBFB3FA83F503FA05F405
:1002900024FA05F65E4012BF1643B2FA82F502FA5E
:1002A00005F4C5F120051EBF22FA05FC44EA0C0442
:1002B000203556EA044C4FEA144418BF641C4FF032
:1002C00000084FF00009904271EB030C39D300296C
:1002D00019BFB1FA81F701FA07F6B0FA80F700FA10
:1002E00007F6C7F120071EBF20FA07FC46EA0C06F6
:1002F0002037B6FBF4FCA7EB0507103F07F01F0BF8
:10030000CBF120062CFA06F60CFA0BFB44BFB346E1
:100310000026202FA4BF5E464FF0000B5BEA060CC0
:1003200008BF4FF0010B19EB0B0948EB0608ABFBBC
:10033000027C06FB02CC0BFB03CCC01B71EB0C0157
:10034000C1E70B46024641464846BDE8F08B13B56F
:10035000084318BF4FF0FF300146AFF30080BDE8FF
:100360001C4070474FF0000200B513469446964675
:10037000203922BFA0E80C50A0E80C50B1F12001B8
:10038000BFF4F7AF090728BFA0E80C5048BF0CC066
:100390005DF804EB890028BF40F8042B08BF7047C4
:1003A00048BF20F8022B11F0804F18BF00F8012B36
:1003B000704770477047704710B500F009F8006843
:1003C00010BD10B5044600F003F8046010BD000035
:1003D00000487047100000200048704710000020BF
:1003E0007546FFF7F9FFAE4605006946534620F013
:1003F0000700854618B020B5FFF72AFFBDE820406A
:100400004FF000064FF000074FF000084FF0000BD0
:10041000AC46ACE8C009ACE8C009ACE8C009ACE83F
:10042000C00921F007018D46704710B50446AFF3AF
:1004300000802046BDE81040FFF7F5BE01491820B6
:10044000ABBEFEE7260002007047000080B5014603
:10045000806B036C026C13F0500F06D0D2060FD4E1
:10046000806BC26C0846904780BD42F40071016405
:1004700001688A6812F0405F05D000F079F980BD0C
:1004800000F07EFA80BD027E002AF6D1CA6A12F41C
:10049000700F02D08A685205EFD44A6822F0200219
:1004A0004A60016C21F480710164016CC904E4D4D8
:1004B000016C41F00101016400F05AF980BD0000B7
:1004C00080B5806B40210164416C41F004014164BE
:1004D00000F056FA80BD000080B5806B00F04AF94C
:1004E00080BD0000FEE7000080B543F21C10C2F2A0
:1004F000000000F057FC80BD70470000EFF3108053
:1005000072B600BFFEE7000042F2CC40C2F200002B
:1005100070470000F0B590F83C20012A04BF02208B
:10052000F0BDD1F800C001221FFA8CFE80F83C20FB
:100530004FEA4E0212FA8CF20368BCF10A0F32BF86
:1005400010331E3A0C3307241D68944025EA040436
:100550001C608C681D6804FA02F22A431A60036862
:1005600000269A6BCFF6F07622F440129A634D681B
:100570000A698C699F6B06EB0256AA1A3E43033246
:100580009E63D6B2B60056FA82F21F269F6B964043
:1005900027EA06069E639E6B0EFA02F232439A63C6
:1005A0009A68012722F470229A609A68C0F20F07B5
:1005B000BC4202D122F4401409E022439A609A68B6
:1005C00022F440129A60CA699F6847EA02049C605C
:1005D0000A7D4F7D5E68002F26F4806618BF06F501
:1005E00080665E605F68002A27F4805718BF07F5B1
:1005F0008057032D5F6008D0022D09D0012D14BF54
:1006000003F1200203F1140204E003F11C0201E0F3
:1006100003F11802176840F6FF76B7431760CF68FA
:1006200042F204311668C4F20101A1F54174374366
:10063000A342176008BFBCF1120F02D0A34206D03C
:100640000DE00A6842F480020A60A34207D12CF050
:100650000102102A03D10A6842F400020A60002154
:1006600080F83C100846F0BD70B581B000220092C1
:1006700090F83C20012A01D1022176E00E68012287
:100680001FFA86FC80F83C204FEA4C0212FA86F3EF
:1006900002680A2E32BF10321E3B0C324FF0070E9A
:1006A00015680EFA03F4A54315608D68146805FA01
:1006B00003F3234313604968062906D8026801EB57
:1006C0008101053902F134030AE00C2901EB8101B3
:1006D000026887BF413902F12C03233902F130034C
:1006E0001F221C688A4024EA02021A601A680CFA67
:1006F00001F1114342F2043E1960C4F2010E016897
:10070000AEF54172914208BF122E02D0914208D03C
:1007100028E0DEF8003043F48003CEF80030914248
:1007200020D126F0010110291CD1DEF80010102E76
:1007300041F40001CEF8001014D140F20001C2F2E1
:10074000000109684DF68362C4F21B32A1FB02125C
:10075000910C01EB810149000091009911B10099C0
:100760000139F9E7002180F83C10084601B070BD5E
:10077000704700002DE9F04F81B043F2D400C2F27F
:10078000000000F099FAFFF7BFFE40F2700B40F254
:100790000021C2F2000BC0F2001141F65002CBF86A
:1007A0001810CBF8341C4BF802107A2142F2584949
:1007B000C0F26E014BF809108188CBF800000029C7
:1007C00053D04AF6AB2A08304FF00008CAF6AA2ADE
:1007D00041F6540C41F6580E002400270026002252
:1007E00007E000BFC3F800800132013900F10400C6
:1007F0003BD0A2FB0A356B0803EB4303D31A022B51
:1008000012D0012B20D0002BEED1B6F5007F2CDAD0
:1008100090ED000A0BEB8603B8EE400A83ED070A61
:1008200002362033DEE700BFB4F5007F1DDA90ED1D
:10083000000A0BEB8403B8EE400A03EB0C0502340C
:10084000734485ED000ACDE7B7F5007F0DDA90ED32
:10085000000A0BEB8703B8EE400A03F6384585ED36
:10086000000A023703F63C43BCE70BF104042046C0
:100870004FF48071002201234FF0000A01F002FFC3
:100880000BF5426840464FF480710022012301F0CD
:10089000F9FE41F63C000BEB000630464FF4807148
:1008A0000022012301F0EEFE0BF11C072046394621
:1008B00001F0C7FE0BF638444046214601F0C1FE68
:1008C00041F654000BEB00083046414601F0B9FEFA
:1008D0000BF61C0138464FF4807201F011FF41F213
:1008E00038400BEB000120464FF4807201F008FF06
:1008F00042F254040BEB040140464FF4807201F0C5
:10090000FFFE42F25A403BF800103BF8090041F666
:10091000380242F254438142CBF81CAC4BF802A09F
:100920004BF803A027D8401A0BEB81070130391987
:1009300007F618075A445B440BF61C4697ED010A6C
:1009400096ED001A043730EE010A86ED000AA1F692
:100950001C4696ED000A92ED001A013830EE010AAD
:1009600082ED000AB1EC010A93ED001A30EE010AA3
:1009700083ED000AE0D101F003FD01B0BDE8F08F86
:1009800070470000002804BF0120704710B50446DE
:10099000006C30B9204600F09BF80020606484F8B9
:1009A0003C00206CC0063AD4206C41F2021188430E
:1009B000023042F204312064C4F20101086820F4DC
:1009C000403008600A6894E809101A43D4F810E02F
:1009D0000A604168012321F4807141604168C0F6DA
:1009E000007341EA0E214160416821F0407141608D
:1009F000416841EA0C014160816821F40061816035
:100A0000E168826811438160A16A8268994222F09C
:100A100070628260826804D122F040510AE00120B5
:100A200052E011438160816821F040518160E16AA8
:100A3000826811438160816821F0020181608168D0
:100A4000227E94F8203041EA42018160416883B1FE
:100A500041F40061416041684EF2000221F46041BE
:100A60004160616ACFF6FF72436802EB413119437E
:100A700001E021F400614160C16A40F2000C21F400
:100A80007001C162E2696169CFF6F07CC36A0CEB68
:100A900002521A43C262826822F40072826094F8A1
:100AA0003020836843EA42228260826822F48062B6
:100AB0008260826842EA8121816000206064216C4A
:100AC000012262F301012164002184F83C1010BD71
:100AD00070B586B0044642F200002168C4F20100FD
:100AE000002681420596CDE903660296019601D063
:100AF00006B070BD43F630010096C4F202014A69A7
:100B000000F5604042F480724A614A6902F48072E2
:100B10000092009A00960A6842F001020A60096891
:100B200001F00101009100990E2101910321CDE90D
:100B3000021601A900F0EAFA43F21C1546F2104031
:100B4000C2F20005C4F202004FF48061C5E900065C
:100B500005F110004FF480524FF480434FF4807C35
:100B600080E80E102846C5E90266C5E9086600F06F
:100B7000DFF9002818BFFFF7C1FCA563AC6306B01E
:100B800070BD000070B582B004460020019094F85A
:100B90003C00012802D1022002B070BD13460A4673
:100BA0000120216884F83C008868C00718D1886853
:100BB0004DF6836540F00100886040F20000C2F20B
:100BC00000000068C4F21B35A0FB0505A80C00EB73
:100BD000400000BF0190019810B101980138F9E779
:100BE0008868C00503D5886820F4807088608D68A7
:100BF000206CED0709D140F01000206404F144009E
:100C000001210268114301604FE040F20175A843E1
:100C100000F5807020644868400504D5206C0125EB
:100C200065F30D302064256C0020ED044FF00005C5
:100C300044BF656C25F00605656484F83C00A06B34
:100C400040F24D4540F2D94CC0F60005C0F6000C0C
:100C5000C0E90F5C40F2C145C0F60005C5646FF005
:100C600022050D604D6842F2000645F080654D603A
:100C70008D68C4F2010645F480758D604C3100F03A
:100C8000F7F9D6F804132068C90609D0B0420CD190
:100C9000B16811F0405F08D108304FF08041B0E7F3
:100CA00050F8081F11F0405F02D0002002B070BD64
:100CB0004FF08041A5E70000B0B5044690F83C0035
:100CC000012804BF0220B0BD0120216884F83C0047
:100CD0008868002520F0010088608868C0074FF010
:100CE00000001CD1886820F480708860A06B90F8A8
:100CF0003510022907D100F015F828B1216C41F018
:100D00004001216400E0002021684A6822F08062EE
:100D10004A60216C41F2011291430131216484F84F
:100D20003C50B0BD70B5866D044600F0BFFA94F833
:100D30003510022925D105462068216C026822F071
:100D400016020260426922F08002426109B9A16C78
:100D500019B1016821F008010160016821F0010169
:100D6000016000BF20680068C0070ED000F09EFA46
:100D7000401B0628F6D320206065032084F8350048
:100D80000CE080206065012008E0E06D3F2101FA61
:100D900000F0B060012084F835000020002184F8C4
:100DA000341070BDF0B581B004460020009040F2D0
:100DB0000000C2F200000268D4E9166048F2B513E0
:100DC00037680821C1F64E3381403942A2FB032522
:100DD0000CD0226813685B0708D5136823F004035E
:100DE0001360B160616D41F00101616501218140D5
:100DF000394208D022685269120604D5B160616D8B
:100E000041F00201616504218140394208D0226825
:100E10001268920704D5B160616D41F0040161650B
:100E200010218140394215D020680268120711D57F
:100E3000B16002680168520306D4C90506D401688E
:100E400021F00801016001E0080340D4216C09B1E0
:100E500020468847E16D202000FA01F23A4242D054
:100E600020680368DB063ED5B26094F8353002682E
:100E7000052B1CD122F016020260426922F080028A
:100E80004261226C0AB9A26C1AB1026822F008020F
:100E900002603F208840B060012084F83500216D59
:100EA0000020002984F834003DD101B0F0BD016874
:100EB000520310D4C90512D4016821F01001016059
:100EC000012084F83500002084F8340007E0A16C8C
:100ED0000029BDD1BEE7080301D4616C00E0E16BDD
:100EE00009B120468847606D0028DED0606DC007DC
:100EF00016D0052084F835002068A90A026822F07F
:100F000001020260009A01328A42009202D802680D
:100F1000D207F7D1012084F83500002084F834008E
:100F2000E16C0029C1D02046884701B0F0BD000027
:100F30002DE9F041044600F0B9F9C4B1054602209C
:100F400084F835000020216884F83400086820F017
:100F50000100086020680168C9070BD000F0A6F9FD
:100F6000401B0528F6D90321202203207BE0012025
:100F7000BDE8F081016848F23F02CFF21002D4E9E7
:100F8000013501EA020ED4E9032143EA0E032B43A3
:100F9000D4E9056C1A431143D4E90778314341EA97
:100FA0000C02616A3A43042942EA080304D1D4E9F5
:100FB0000B271A4342EA070303604269042922F01F
:100FC000070241EA02012DD1D4E90A5341EA0501A1
:100FD00043B3BCF5005F08D0BCF1000F12D1022D65
:100FE00016D0012D07D09DB119E0032D17D8DFE8E9
:100FF00005F00B0F0B02A3F1C072B2FA82F2520994
:101000004AB90FE0032D02D2012222B90AE006D12B
:10101000C3F3006232B101214022012023E000220B
:10102000002AF8D16FF00F024AF6AB2352FA80F291
:10103000CAF6AA23A2FB033743F6B033416139094C
:10104000C0F60003595C40F2FF3398435F2A4FF02B
:101050003F0288BF0430C4E9160102FA01F1816041
:10106000002201210020626584F83510BDE8F0817E
:1010700070B590F834C0BCF1010F45D04FF0010CB1
:1010800080F834C0D0F858E090F835C0BCF1010FBA
:1010900037D14FF0020C80F835C04FF0000CC0F88B
:1010A00054C0D0F800C08468056CC06DDCF80060E6
:1010B000402C26F48026CCF80060CCF804300B4697
:1010C00004BF13460A463F2101FA00F0CCF808306D
:1010D000CCF80C20CEF80800DCF8000040F0160038
:1010E000CCF800002DB1DCF8000040F00800CCF88E
:1010F0000000DCF8000040F00100CCF80000002007
:1011000070BD002180F83410022070BD2DE9F04F31
:1011100082B000F13E4241F2000502F1FF77C4F2D5
:10112000020507224FEAB726A84208BF0422042E70
:1011300038BF4FEAB7224FF0010A002400274FF0D2
:101140000009009209E000BF09F101090437B9F173
:10115000100F04F1020400F0A6800A680AFA09FCE4
:1011600012EA0C08F0D0D1F804B00BF0030AAAF18F
:101170000102012A12D882680323CE6803FA04FE12
:1011800022EA0E02A640324382604268CBF3001688
:1011900022EA0C0206FA09F632434260BAF1030F62
:1011A0001DD0C26803238D6803FA04F6B24305FA22
:1011B00004F63243BAF1020FC26010D16FF003029D
:1011C00002EA59020244D2F820C007F01C050F239E
:1011D0000E69AB402CEA0303AE403343136202684E
:1011E00003234E68A3409A4306F00303A3401A4327
:1011F00016F4403F4FF0010A0260A5D0002243F6EA
:1012000044030192C4F202031A6843F6004E42F40A
:1012100080421A601A68C4F2010E02F48042019200
:10122000019A29F003024FF6084C7244CFF6FF7C76
:1012300052F80C3007F00C060F25B540AB43009D6B
:1012400005FA06F6334342F80C30DEF808204B6806
:1012500042EA080643F60C4CDD0258BF22EA0806B3
:10126000CEF80860C4F2010CDCF800209D0242EACE
:10127000080658BF22EA0806CCF80060DEF8042011
:101280009D0342EA080658BF22EA0806CEF8046029
:10129000DEF80020DB0342EA080658BF22EA08060F
:1012A000CEF8006050E702B0BDE8F08F43F20C20AA
:1012B000C2F200000068704740F2040043F20C21C3
:1012C000C2F20000C2F2000100780A68104408600F
:1012D0007047000080B543F60040C4F20200016888
:1012E00041F400710160016841F4806101600168AE
:1012F00041F480710160032000F088F80F2000F0B5
:1013000005F800F02BF8002080BD0000B0B540F2D9
:101310000402C2F2000240F200011278C2F200019F
:101320004FF47A730968B3FBF2F20446B1FBF2F1B1
:10133000084600F003FB0F2C4FF001050CD858B9FC
:101340004FF0FF3021460022002500F033F840F234
:101350000800C2F2000004602846B0BD82B0002040
:1013600043F640010190C4F202014A6842F480420F
:101370004A604A6802F480420192019A009008682B
:1013800040F080500860086800F08050009000989D
:1013900002B07047002848BF704700F01F010122CB
:1013A00002FA01F14EF200124009CEF2000242F8B8
:1013B0002010704710B54EF60C5CCEF2000CDCF835
:1013C0000030C3F3022E8EF00704042C28BF04243F
:1013D000BEF103034FF0FF3E0EFA04F438BF0023C2
:1013E000A14399400EFA03F39A4300F00F03043B24
:1013F0001143634409010C3300F16042B0F1FF3F37
:10140000C8BF02F56443197010BD00004EF60C51C0
:10141000CEF200010A684FF6FF031A4060F30A2279
:1014200042F0806040F0FD70086070472DE9F041A7
:10143000002800F08B8043F60808C4F20208044636
:10144000D8F8F8030D4600F00700884207D288F864
:10145000F853D8F8F80300F00700A84276D12068C6
:10146000810717D5410705D5D8F8001041F4E051A0
:10147000C8F80010010705D5D8F8001041F4604104
:10148000C8F80010D8F80010A26821F0F00111434C
:10149000C8F80010C0073FD1D8F8F80300F00700E3
:1014A000A84207D988F8F853D8F8F80300F00700E5
:1014B000A8424BD12068410707D5D8F80010E26850
:1014C00021F4E0511143C8F80010000708D5D8F8FE
:1014D0000000216920F4604040EAC100C8F8000023
:1014E00000F054F8D8F8001043F2A032C1F3031111
:1014F000C0F60002515C40F2000220FA01F140F215
:101500000800C2F200000068C2F200021160FFF79A
:10151000FDFE0020BDE8F0816068811E022907D22F
:1015200058F8081C89015CBF0120BDE8F08110E07B
:10153000012807D158F8081C89035CBF0120BDE8C9
:10154000F08106E058F8081C890702D40120BDE8A4
:10155000F081D8F8001021F003010843C8F800001A
:10156000FFF7A4FE064641F2883700BFD8F8000016
:10157000616800F00C00B0EB810F8DD0FFF796FE94
:10158000801BB842F2D90320BDE8F08110B543F6C4
:101590000404C4F20204606800F00C0008280AD0B9
:1015A000042819BF42F20040C0F2F40047F64000A0
:1015B000C0F27D1010BD206821682368490247F6FB
:1015C0004001C0F27D1100F03F02C3F388105CBF00
:1015D00042F20041C0F2F401A1FB00010023FEF73A
:1015E00049FE21680222C1F3014102EB4101B0FB37
:1015F000F1F010BD2DE9F04182B0002800F0A2808A
:101600000446007843F60006C007C4F2020643D041
:10161000B06800F00C00042805D1306880033BD589
:101620006068C8BB8EE0B06800F00C00082802D1EA
:1016300070684002F1D46568B5F5A02F0AD0B5F501
:10164000803F0BD0306820F480303060306820F468
:10165000802006E0306840F480203060306840F43C
:1016600080303060FFF722FE002D054611D000BF0C
:101670003068800310D4FFF719FE401B6428F7D9A7
:1016800022E100BFFFF712FE401B64284FF0030069
:1016900055D830688003F5D4207880071AD5B06813
:1016A00010F00C0F09D0B06800F00C00082840F0D2
:1016B0008A807068400200F186803068800702D519
:1016C000E06801283ED13068216920F0F80040EA46
:1016D000C10030602078000738D4207840074CD40F
:1016E000A5695DB3B06800F00C00082840F09E804A
:1016F000012D27D07068E16900F480028A4221D16F
:10170000216A00F03F028A421CD147F6C071626A2A
:101710000140B1EB821F15D1A26A0023CFF6FF73FF
:1017200003EBC23200F440316FF30F02914209D152
:10173000E16A00F07060B0EB016F03D1002002B0ED
:10174000BDE8F081012002B0BDE8F08160690028A9
:1017500040F20000C4F2472057D00121C0F8801E9B
:10176000FFF7A4FD054600BF706F8007B5D4FFF7F3
:101770009DFD401B0228F7D9A6E0306C10F0805880
:101780000AD100200190306C40F080503064306C01
:1017900000F080500190019847F20007C4F2000762
:1017A0003868C00524D4386840F480703860FFF78A
:1017B0007DFD05463868C0051AD4FFF777FD401B4C
:1017C0000228F7D980E0E068002851D00020C4F258
:1017D000472001210160FFF769FD05463068800759
:1017E0003FF571AFFFF762FD401B0228F6D96BE0B1
:1017F000A568052D50D0012D52D0306F20F001008A
:101800003067306F20F004004DE00021C0F8801EEA
:10181000FFF74CFD054600BF706F80077FF55DAF99
:10182000FFF744FD401B0228F6D94DE00027C4F223
:10183000472700203866FFF739FD022D05460BD1FA
:101840003068800158D5FFF731FD401B02284FF06A
:101850000300F5D973E700BF306880017FF56EAFF4
:10186000FFF724FD401B02284FF00300F4D966E780
:101870000020C4F2472000210160FFF717FD054654
:10188000306880077FF526AFFFF710FD401B022868
:101890004FF00300F4D952E7306F40F00400306796
:1018A000306F40F001003067FFF700FD002D054666
:1018B00041F2883714D000BF306F800713D4FFF790
:1018C000F5FC401BB842F7D9032002B0BDE8F08117
:1018D000FFF7ECFC401BB8424FF003003FF62FAF80
:1018E000306F8007F4D4B8F1000F7FF4F9AE306C9C
:1018F00020F080503064F3E604F11C052FCD08433E
:101900000021CFF6FF7140EA821001EBC3316FF383
:101910000F0140EA05600843706001203866FFF758
:10192000C5FC0446306880013FF508AFFFF7BEFCF8
:10193000001B02284FF00300F4D900E7411E0020ED
:10194000B0EB116F1CBF012070474EF21002CEF2B7
:10195000000251604EF62351CEF20001F0230B70CD
:101960000721906011607047B0B590F83C20012AC3
:1019700004BF0220B0BD01F108053CCDD1E900CE85
:1019800023F47C5322F470521A432EF4F0431A438A
:101990002CF4E0431A4324F4C0431A432A43C96990
:1019A00022F48042036811435964002180F83C10FE
:1019B0000846B0BD10B590F83C20012A4FF0020255
:1019C00040D0012380F83C3080F83D200268D2F8F6
:1019D00004E0D2F808C00C682EF07003234340F6F0
:1019E000FF34C4F20004A24253600FDCB2F1804F16
:1019F0001DD040F20043C4F200039A4217D040F6D3
:101A00000003C4F200039A4211D015E040F60043EF
:101A1000C4F200039A420AD044F20003C4F2010364
:101A20009A4204D00023C4F201039A4204D14968C7
:101A30002CF08003194391600121002280F83D10B1
:101A400080F83C20104610BD002804BF01207047DC
:101A500010B5044690F83D0028B9002084F83C00F9
:101A6000204600F01FF8022084F83D002068211D68
:101A700000F020FD012084F8460084F83E0084F840
:101A80003F0084F8400084F8410084F8420084F864
:101A9000430084F8440084F8450084F83D000020A9
:101AA00010BD000082B0006840F60001C4F20001E1
:101AB000884215D00021C4F2010188421FD10020C4
:101AC000019043F64000C4F20200416841F0010178
:101AD0004160406800F001000190019802B0704739
:101AE0000020009043F64000C4F20200016841F07B
:101AF00004010160006800F004000090009802B04A
:101B00007047000080B590F83C20012A4FF0020297
:101B100000F0C280012380F83C3080F83D20D0F8EE
:101B200000C04FF67772DCF8083023EA0202CCF8E6
:101B300008200B684F2B28DC1F2B43DD202B44D0C3
:101B4000302B42D0402B40F0A980D1F804E0C96886
:101B5000DCF82030DCF8202022F00102CCF8202034
:101B6000DCF8182022F0F00242EA011123F00A0208
:101B700042EA0E02CCF81810CCF82020DCF808104D
:101B800041F0470121F030017DE06F2B25DDB3F5F9
:101B9000005F46D0B3F5805F77D0702B7ED1D1E95E
:101BA00001E3C968DCF8082043EA0E0322F47F420F
:101BB00043EA01211143CCF80810DCF8081041F089
:101BC000770160E00BB1102B68D1DCF8081021F030
:101BD0007001194341F0070155E0502B34D0602BC0
:101BE0005CD1D1F804E0C968DCF8203023F01003A0
:101BF000CCF82030DCF81830DCF8202023F47043D7
:101C000022F0A00243EA013142EA0E12CCF8181089
:101C1000CCF82020DCF8081041F0670121F0100119
:101C200031E0D1E901E3C968DCF8082043EA0E039A
:101C300022F47F4243EA01211143CCF80810DCF87A
:101C4000081041F480411EE0D1F804E0C968DCF8D6
:101C50002030DCF8202022F00102CCF82020DCF833
:101C6000182022F0F00242EA011123F00A0242EAAF
:101C70000E02CCF81810CCF82020DCF8081041F047
:101C8000570121F02001CCF808100022012180F832
:101C90003D10002180F83C10104680BD0122F5E780
:101CA000F0B590F83C30012B04BF0220F0BD4FEAA4
:101CB000B2020123032A80F83C3000F2E580DFE81D
:101CC00002F0023975B0036800271A6AC4F20107EE
:101CD00022F001021A621E6A1A465C6852F818CF96
:101CE0008D6826F00206BB4245EA060E06D1CD6895
:101CF0002EF00C0625F0040545EA060E0E68BB42E0
:101D000005D1D1E9055724F440742C433C432CF011
:101D1000730737435C609F614F6809695F63C3F86D
:101D200020E09F6947F008079F619F6927F004073B
:101D30009F61A5E0036800251A6AC4F2010522F03C
:101D400010021A621C6A1A46D3F804E052F818CF3F
:101D50008E6824F02004AB4244EA061407D1CE6812
:101D60006FF0400724F0C00407EA061634430E68FB
:101D7000AB4207D1D1E905572EF4406E4EEA8505F6
:101D800045EA870E2CF4E64747EA0627C3F804E045
:101D90009F614F6809699F631C629F6947F40067F0
:101DA0009F619F6927F480679F6168E00368002551
:101DB0001A6AC4F2010522F480721A621C6A1A4679
:101DC000D3F804E052F81CCF8E6824F40074AB42C0
:101DD00044EA062407D1CE6840F2FF47360224F4D5
:101DE0004064BE4334430E68AB4207D1D1E9055786
:101DF0002EF4405E4EEA051545EA071E2CF07307E7
:101E00003743C3F804E0DF614F680969DF631C6290
:101E1000DF6947F00807DF61DF6927F00407DF614A
:101E20002EE0036800271A6AC4F2010722F48052E8
:101E30001A621A46D3F820C05D6852F81C4FD1F8D8
:101E400000E08E68BB4204D14F6925F4804545EA25
:101E500087152CF4005747EA063724F4E64646EA8D
:101E60000E265D60DE614E6809691E641F62DF69CF
:101E700047F40067DF61DF6927F48067DF610902EB
:101E80001368194300231160002180F83C101846A4
:101E9000F0BD0000002804BF0120704710B50446C3
:101EA00090F83D0028B9002084F83C00204600F05E
:101EB0001FF8022084F83D002068211D00F0FAFA86
:101EC000012084F8460084F83E0084F83F0084F83E
:101ED000400084F8410084F8420084F8430084F80C
:101EE000440084F8450084F83D00002010BD000047
:101EF0007047000041B1082909D0042914BF00F13E
:101F0000410200F13F0204E000F13E0201E000F175
:101F100040021278012A1CBF01207047022241B101
:101F2000082909D0042914BF80F8412080F83F20F7
:101F300004E080F83E2001E080F84020006801F0D5
:101F40001F010122036A8A4023EA02010162036A37
:101F50004421C4F201011A43A1F1440398420262F0
:101F600003D10A6842F400420A6040F6FF31C4F22D
:101F7000000188420FDCB0F1804F1DD040F20041DB
:101F8000C4F20001884217D040F60001C4F20001FB
:101F9000884211D017E040F60041C4F200018842A7
:101FA0000AD044F20001C4F20101884204D00021A9
:101FB000C4F20101884206D1816801F007010629B7
:101FC00004BF00207047016841F00101016000205A
:101FD00070470000FEE7000010B58CB043F2D4005B
:101FE00001220021C2F2000042F2000CC0F6007291
:101FF000C4F2010C4FF480330124C0E90A2103220A
:10200000CDE90A11CDE90811CDE90611CDE9041198
:10201000CDE90211CDE90011047680F82010C261EB
:1020200080F83040C0E900C3C0E90211C0E90444AF
:10203000FEF7A8FC002818BFFEF760FA06200A90F9
:1020400043F2D400C2F2000008A9CDE90844FEF72B
:102050000BFB002818BFFEF751FA0220CDE908005B
:1020600043F2D400C2F2000008A9FEF7FDFA0028EE
:1020700018BFFEF743FA43F2D4000324C2F2000073
:1020800008A9CDE90844FEF7EFFA002818BFFEF7CB
:1020900035FA0120CDE9000000204FF480110290B4
:1020A00007914FF41021ADF81400039043F2D400CF
:1020B0000691C2F2000069460494FEF72BFA00284C
:1020C00018BFFEF71BFA0220CDE9000043F2D4004E
:1020D000C2F200006946FEF71DFA002818BFFEF79D
:1020E0000DFA0320CDE9000043F2D400C2F2000053
:1020F0006946FEF70FFA002818BFFEF7FFF90CB08B
:1021000010BD000080B582B00020019043F6300081
:10211000C4F202000168002241F4800101600068FD
:10212000002100F48000019001983820FFF742F967
:102130003820FFF72FF902B080BD000082B00020E8
:1021400043F630010190C4F202010A6842F08002B5
:102150000A600A6802F080020192019A0090086801
:1021600040F001000860086800F00100009000984D
:1021700002B0704770B59CB0002543F27C10C4F2E9
:1021800001050021C2F20000532244F61F6315919D
:10219000CDE91311CDE91111CDE90F11CDE90D11E3
:1021A000CDE90B11CDE90911CDE90711CDE90511F3
:1021B000CDE90311CDE90111C0E90052C0E90213D4
:1021C000C0E904118161FFF73FFC002818BFFEF74A
:1021D00095F94FF48050129043F27C10C2F2000047
:1021E00012A9FFF78FFC002818BFFEF787F943F20A
:1021F0007C10C2F20000FFF74DFE002818BFFEF76A
:102200007DF943F27C100024C2F2000010A9CDE950
:102210001044FFF7CFFB002818BFFEF76FF96020CE
:10222000CDE9090443F27C10C2F2000009A90022A2
:10223000CDE90B44CDE90D440F94FFF731FD0028A3
:1022400018BFFEF75BF943F27C10C2F2000009A947
:102250000422FFF725FD002818BFFEF74FF943F2CF
:102260007C10C2F2000009A90822FFF719FD00281E
:1022700018BFFEF743F943F27C144FF40050C2F24A
:1022800000040026069001A920460596CDE90366C4
:10229000CDE901660896FFF767FB002818BFFEF737
:1022A0002DF920681B96A842CDE919661896179655
:1022B00001D01CB070BD002043F630011690C4F26E
:1022C00002010A6842F001020A60096801F0010196
:1022D000169116994FF4E06117910221CDE918107B
:1022E0001A9001201B9005F5803017A9FEF70EFF0C
:1022F0001CB070BD80B586B043F2C41040F6000239
:102300000021C2F20000C4F2000215234FF0640C59
:10231000CDE90411CDE90211CDE90011C0E9002396
:10232000C0E9021C01618161FFF78EFB002818BF24
:10233000FEF7E4F84FF48050029043F2C410C2F26A
:10234000000002A9FFF7DEFB002818BFFEF7D6F851
:10235000202000900020019043F2C410C2F200003F
:102360006946FFF727FB002818BFFEF7C7F806B03D
:1023700080BD0000FEE70000FEE70000704700009F
:10238000B0B542F2CC40C2F2000043F2D404C2F233
:1023900000044FF4407100F1080504608180284674
:1023A0004FF44061FDF7DEFF204629464FF44072AE
:1023B000FEF7E8FBB0BD00007047000010B543F227
:1023C0007C14C2F2000420460021FFF793FD204652
:1023D0000421FFF78FFD20460821FFF78BFD2068C1
:1023E00042F6041141638163C16310BD80B5FEF7FD
:1023F00063FF80BD70B592B006AC20463021FDF77A
:10240000B1FF002543F640000595CDE90355CDE920
:1024100001550095C4F202000168022641F0805186
:102420000160006800F080500090009847F20000C2
:102430000095C4F20000016866F38F310160006806
:1024400000F44040009000980120099010200A906C
:1024500008200E905420CDE90F060420119020464C
:102460000696CDE90C65FFF7C5F820B1EFF31080B3
:1024700072B600BFFEE70F20CDE901064FF4805091
:10248000CDE9040501A802210395FEF7CFFF20B195
:10249000EFF3108072B600BFFEE712B070BD00000F
:1024A0004EF68850CEF20000016841F470010160E0
:1024B0007047000010B540F2FF7E0368C4F2000EC2
:1024C00040F2000C7045C4F2010C0ADD40F6000237
:1024D000C4F2000290420DD060450BD040F600429D
:1024E00004E0B0F1804F05D040F20042C4F2000297
:1024F000904203D14A6823F0700313434FF6FF72F2
:10250000C4F20002904209DC704512DCB0F1804F49
:1025100026D040F20042C4F200021FE044F2FF3233
:10252000C4F2010290420FDC604519D044F200026F
:1025300012E040F60002C4F20002904210D040F6D1
:102540000042C4F2000209E044F60002C4F20102B3
:10255000904205D044F20042C4F20102904203D1FD
:10256000CA6823F44073134323F080024B69D1F807
:1025700000E08C681A4360450260C462C0F828E03D
:1025800002D10969CCF830100121416110BD000071
:10259000FEE700002DE9F04701264FEA42084FEA26
:1025A00051090024002506EB510C6FF0010606EBE3
:1025B000510E00BFADB26600AC4228D250F8267072
:1025C00050F83520E900043140F8262040F83570F5
:1025D00046F0010250F822A0475840F8227040F817
:1025E00001A004EB0C0105EB0C0750F831A050F8EA
:1025F000372040F83120C90040F837A0FF000431EF
:10260000043750F801A0C259425040F807A000EB2F
:1026100086014D448A6850F835608E6040F8352058
:10262000ED000435CA684659CE604251A21C03EB46
:10263000080194B21D880B46744588BFBDE8F08739
:10264000B8E7B0B582B00C46054683894268018878
:102650008078012805D128690090204600F078FB99
:1026600002E0204600F0C0F8E87801281CBF02B064
:10267000B0BDAB68EA892988204602B0BDE8B04009
:10268000FFF788BF43F6B83CFF29C0F6000CC0F83E
:1026900004C00180C370827043F2B0324FF0FF0378
:1026A000C0F600020DDDB1F5807F13D0B1F5805F7B
:1026B00015D0B1F5806F21D106324FF06A51042355
:1026C00017E010290FD0402918D17E324FF07251F7
:1026D00040230EE01E324FF06E51102309E04FF000
:1026E0006651012305E002F5FF724FF076514FF479
:1026F0008073C381838100230161826058B2704777
:102700002DE9F04381B00546002090460C46B0EB21
:10271000920F4CD04FEA9800C0F10009D5E90007AC
:10272000014600F01EFE06463846394600F019FE06
:102730000146304600F00CFE00F0EBFD2060D5E9CC
:102740000206014600F00DFE07463046314600F015
:1027500008FE0146384600F0FBFD00F0DAFD60603F
:10276000D5E90406014600F0FCFD07463046314637
:1027700000F0F7FD0146384600F0EAFD00F0C9FD23
:10278000A060D5E90606014600F0EBFD074630469D
:10279000314600F0E6FD0146384600F0D9FD00F074
:1027A000B8FDE0601034203519F10109B6D118F0F8
:1027B000030016D0474200BFD5E90006014600F0ED
:1027C000D0FD80463046314600F0CBFD0146404604
:1027D00000F0BEFD00F09DFD44F8040B0835013704
:1027E000EAD101B0BDE8F0832DE9F04FA3B08346F4
:1027F00000200C91144604931E9206922292A0EBA4
:10280000910718018908CDF808B00B90D800019104
:1028100005910A9003EB4300C0000990C800219085
:102820000801209001EB4100C0001F90CDE91C473A
:102830002098DBF804A05BF800108046DBF800006D
:10284000CDF84CA01791169000F082FD21991F9AA7
:10285000074619905BF801000E465BF8021015461A
:102860001590149100F074FD81463846494600F0F9
:102870006FFD0BEB05014F681B910BEB06014E68DA
:102880000F910BEB08011A9149681197109612915C
:10289000D4E90082CBF8000050460D9200F058FDBC
:1028A00005463046394600F053FD04462846214689
:1028B00000F04EFDCBF804001998494600F067FD82
:1028C00006462846214600F062FD04463046414651
:1028D000C24600F046FD0D9F05462046394600F0F1
:1028E00040FD0146284600F033FD2299DDF878804E
:1028F0000A68496818921991D8E900910E912199B6
:102900004BF801005046214600F02BFD04463046AE
:10291000394600F026FD0146204600F038FD0F99AB
:102920004860DDE9160100F032FD16900446DDE94D
:10293000141000F02CFD17900546DDE9121000F090
:1029400026FD15900646DDE9100100F020FD074642
:102950002046394600F0FCFC04463046294600F08B
:1029600016FD0546204649464E4600F0FAFCDDF8C5
:10297000389082462846494600F0F3FC014650460E
:1029800000F0E6FC20994BF801002846314600F0A3
:10299000E8FC05462046494600F0E3FC014628468F
:1029A00000F0F5FC1A9948601698394600F0EFFCE3
:1029B00081461598179900F0CBFC189C05464846AF
:1029C000214600F0CEFC199F06462846394600F005
:1029D000C8FC0146304600F0BBFC1F994BF80100D3
:1029E0002846214600F0BDFC054648461C9C394659
:1029F00000F0B7FC0146284600F0C9FC1B991D9F5A
:102A00000BF1080B48600B982299013704440A988F
:102A100080440998CDF87880014422917FF406AF74
:102A20000C981428C0F02F81059B00BF4FF0FF3099
:102A30009908DDF80880DF00002500220F9300EBE5
:102A40009300CC000E01039108900498800004903C
:102A500080B2079001EB4100CDE921464FEAC00961
:102A6000CDE90D97DDF818C002EB420E09925CF833
:102A70003E105CF832001491110115905CF80100D1
:102A8000043113905CF80100D100043112905CF81D
:102A9000010011904FEACE0004305CF80000109065
:102AA000CDE90A85209558F80610D8F80000D8F826
:102AB00004501C911D90199500F04AFC824658F86C
:102AC000040058F809101B901A9100F041FC83464D
:102AD0005046594600F03CFC08EB090108EB04099C
:102AE0004E681F912299D9F804704144189617979F
:102AF0001E914968C8F800002846169100F028FC8D
:102B000004463846314600F023FC0646204631464E
:102B100000F01EFCC8F804005046594600F037FC8F
:102B200082462046314600F032FC139F044651464F
:102B3000384600F016FC129D06462146284600F055
:102B400010FC0146304600F003FC219948F80100D2
:102B50003846214600F005FC04462846514600F060
:102B600000FC0146204600F012FCC9F80400DDE933
:102B70001C1000F00CFC1C900446DDE91A1000F05B
:102B800006FC05461D901998169900F000FC814638
:102B9000DDE9170100F0FBFB07462046394600F04F
:102BA000D7FB04464846294600F0F1FBDDF854A067
:102BB00005462146504600F0D4FBDDF844B00646F9
:102BC0002946584600F0CDFB314600F0C1FB229962
:102BD00048F801005046294600F0C3FB0546584618
:102BE000214600F0BEFB0146284600F0D0FB1E99AE
:102BF00048601C98394600F0CAFB1D998246484639
:102C0000DDF8349000F0A4FB149F05465146384689
:102C100000F0A7FB109C06462946204600F0A1FBC9
:102C2000314600F095FB48F809003846294600F087
:102C300098FB054620465146219C00F092FB014638
:102C4000284600F0A4FB229EDDE90E73DDE91F1586
:102C500048600C981D44B8448542FFF423AF0798A0
:102C6000099A0B9DDDF8288002440898013508F187
:102C7000080885427FF6F6AE0599039B880813295C
:102C800005903FF6D3AE0198029C40422290256801
:102C90006068A6686169E7681D951F9021961E917E
:102CA00000F075FBA16980463046209100F06FFB73
:102CB00081464046494600F04BFBE669E061284604
:102CC00021691C9100F063FB82463846314600F0D2
:102CD0005EFB83465046594600F059FBA0614046D2
:102CE000494600F054FB60615046594600F030FB05
:102CF0002061DDE91E1000F02BFB8046384631468E
:102D000000F026FB05464046294600F040FBE06007
:102D1000DDE91C1000F01CFB0646DDE9201000F088
:102D200017FB07463046394600F031FBA0604046AD
:102D3000294600F00DFB60603046394600F008FB84
:102D40002060229820340130A0D123B0BDE8F08F5C
:102D50002DE9F04FA3B0834600200B911446039356
:102D60001D9205922292A0EB910718018908CDF8D7
:102D700004B00C90D800009104910A9003EB43003A
:102D8000C0000990C800209008011F9001EB41008D
:102D9000C0001E90CDE91B471F98DBF800205BF8B0
:102DA00000108146DBF80400169221901046159120
:102DB00000F0CEFA20991E9A80465BF801000E467C
:102DC0005BF8021015461490139100F0C1FA824688
:102DD0004046514600F0BCFA0BEB05014F681A91D2
:102DE0000BEB06014E680F910BEB09011991496835
:102DF000119712961091D4E90092CBF80000219817
:102E00000D9200F0A5FA05463046394600F0A0FACA
:102E100004462846214600F09BFACBF804004046C1
:102E2000514600F0B4FA06462846214600F0AFFAB3
:102E300004463046494600F094FA0D9F0546204668
:102E4000394600F08EFA0146284600F0A0FA229991
:102E5000DDF874800A68496817921891D8E900A1D2
:102E60000E9120994BF801004846214600F079FA6E
:102E700004463046394600F074FA0146204600F018
:102E800067FA0F994860DDE9151000F080FA159097
:102E90000446DDE9131000F07AFA054616902198F1
:102EA000109900F074FA21900746DDE9111000F046
:102EB0006EFA06462046314600F069FA0446384666
:102EC000294600F045FA054620465146574600F08F
:102ED00048FADDF8389082462846494600F041FA23
:102EE0000146504600F053FA1F994BF8010028465E
:102EF000394600F036FA05462046494600F031FAD8
:102F00000146284600F024FA199948601598314680
:102F100000F01EFA81462198169900F038FA179CA5
:102F200005464846214600F01CFA189F06462846EA
:102F3000394600F016FA0146304600F028FA1E998C
:102F40004BF801002846214600F00BFA054648469A
:102F50001B9C394600F005FA0146284600F0F8F9B6
:102F60001A991C9F0BF1080B48600C9822990137A5
:102F700004440A9880440998CDF874800144229151
:102F80007FF408AF0B981428C0F02E81049B00BF7B
:102F90004FF0FF309908DDF80490DF000025002491
:102FA00000EB93000E0102910790C8000D9003986A
:102FB0008000039080B2069001EB4100CDE90E73D2
:102FC00022964FEAC008CDF8308000BF059A04EB86
:102FD000440C089452F83C1052F83400149121012A
:102FE00015905058043113905058E100043112905C
:102FF000505811904FEACC00043010581090CDE991
:10300000099500BF59F80610D9F80000D9F8044016
:10301000DDF834A021951D911E901A9400F098F9C6
:1030200059F808100546169059F80A001C901B9193
:1030300000F08EF983462846594600F089F909EBDD
:10304000080109EB0A084F6820912299D8F804601A
:103050004944179719961F914968C9F800002046FE
:10306000189100F075F905463046394600F070F9C0
:1030700004462846214600F06BF9C9F8040016986A
:10308000594600F084F983462846214600F07FF92E
:10309000139F04465946384600F063F9129E0546D0
:1030A0002146304600F05DF90146284600F06FF9F0
:1030B00049F80A003846214600F053F904463046E4
:1030C000594600F04EF9214600F042F9C8F80400D4
:1030D000DDE91D1000F05BF91D900446DDE91B10D1
:1030E00000F055F905461E901A98189900F04FF90E
:1030F00082461998179900F04AF907462046394642
:1031000000F045F904465046294600F021F9DDF863
:1031100054B005462146584600F023F9DDF84480B6
:1031200006462946404600F01CF90146304600F0AC
:103130002EF9229949F801005846294600F011F964
:1031400005464046214600F00CF90146284600F0AD
:10315000FFF81F9948601D98394600F0F9F81E994C
:1031600083465046DDF8308000F011F9149F054683
:103170005946384600F0F5F8109C06462946204688
:1031800000F0EFF80146304600F001F949F8080078
:103190003846294600F0E5F805462046594600F035
:1031A000E0F80146284600F0D3F820AEDDE90E73C2
:1031B00062CE1D44B94448600B988542FFF422AFAB
:1031C0000698089C0A9DDDF8249004440798013570
:1031D00009F1080985427FF6F9AE0499029B880837
:1031E000132904903FF6D4AE0098019C2C9E4042D7
:1031F000229025686068A7686169D4F80CB01D95B5
:103200001F9021971E9100F0C2F8A16980463846B0
:10321000209100F0BCF881464046494600F0B7F8DE
:10322000314600F09EF8E769E0612846266931469C
:1032300000F0ADF88246584639465D4600F0A7F8E2
:1032400083465046594600F083F82C9900F089F8DF
:10325000A0614046494600F07BF82C9900F081F8C7
:1032600060615046594600F092F82C9900F079F8C8
:103270002061DDE91E1000F06BF8804628463946D3
:1032800000F066F805464046294600F080F82C9983
:1032900000F067F8E0601D98314600F059F80646E6
:1032A000DDE9201000F054F807463046394600F0BA
:1032B0006EF82C9900F055F8A0604046294600F0C1
:1032C00047F82C9900F04DF8606030462C9E394646
:1032D00000F03EF8314600F044F820602298203497
:1032E000013085D123B0BDE8F08F0000FDF7F2FF7B
:1032F000FFF780F8FEF722FFFEF704FFFEF76CFEF3
:10330000FEF7F8FFFEF736FFFFF73AF8FFF756F83B
:10331000FEE710B500EE100A2DED028BB1EEC08A6B
:1033200018EE100A20F00040C0F1FF40C00F0AD094
:1033300010EE100A20F00040C0F1FF40C00F04BFA3
:103340000120FDF73EF818EE100ABDEC028B10BD0F
:1033500000EE100A00EE901A30EE200A10EE100A6D
:10336000704700EE100A00EE901A20EE200A10EED0
:10337000100A7047F1EE100A4FF6FF71C0F2C0312B
:1033800020EA010040F04070E1EE100A704700EEC4
:10339000100A00EE901A30EE600A10EE100A704724
:1033A00000000000000000000102030406070809F5
:1033B0000004000200060001000500030007800071
:1033C0008004800280068001800580038007400021
:1033D0004004400240064001400540034007C00051
:1033E000C004C002C006C001C005C003C007200061
:1033F0002004200220062001200520032007A00031
:10340000A004A002A006A001A005A003A0076000E0
:103410006004600260066001600560036007E00010
:10342000E004E002E006E001E005E003E007100050
:103430001004100210061001100510031007900070
:103440009004900290069001900590039007500020
:103450005004500250065001500550035007D00050
:10346000D004D002D006D001D005D003D007300060
:103470003004300230063001300530033007B00030
:10348000B004B002B006B001B005B003B0077000E0
:103490007004700270067001700570037007F00010
:1034A000F004F002F006F001F005F003F007080068
:1034B0000804080208060801080508030807880030
:1034C00088048802880688018805880388074800E0
:1034D0004804480248064801480548034807C80010
:1034E000C804C802C806C801C805C803C807280020
:1034F0002804280228062801280528032807A800F0
:10350000A804A802A806A801A805A803A80768009F
:103510006804680268066801680568036807E800CF
:10352000E804E802E806E801E805E803E80718000F
:10353000180418021806180118051803180798002F
:1035400098049802980698019805980398075800DF
:103550005804580258065801580558035807D8000F
:10356000D804D802D806D801D805D803D80738001F
:103570003804380238063801380538033807B800EF
:10358000B804B802B806B801B805B803B80778009F
:103590007804780278067801780578037807F800CF
:1035A000F804F802F806F801F805F803F807040033
:1035B000040404020406040104050403040784004F
:1035C00084048402840684018405840384074400FF
:1035D0004404440244064401440544034407C4002F
:1035E000C404C402C406C401C405C403C40724003F
:1035F0002404240224062401240524032407A4000F
:10360000A404A402A406A401A405A403A4076400BE
:103610006404640264066401640564036407E400EE
:10362000E404E402E406E401E405E403E40714002E
:10363000140414021406140114051403140794004E
:1036400094049402940694019405940394075400FE
:103650005404540254065401540554035407D4002E
:10366000D404D402D406D401D405D403D40734003E
:103670003404340234063401340534033407B4000E
:10368000B404B402B406B401B405B403B4077400BE
:103690007404740274067401740574037407F400EE
:1036A000F404F402F406F401F405F403F4070C0046
:1036B0000C040C020C060C010C050C030C078C000E
:1036C0008C048C028C068C018C058C038C074C00BE
:1036D0004C044C024C064C014C054C034C07CC00EE
:1036E000CC04CC02CC06CC01CC05CC03CC072C00FE
:1036F0002C042C022C062C012C052C032C07AC00CE
:10370000AC04AC02AC06AC01AC05AC03AC076C007D
:103710006C046C026C066C016C056C036C07EC00AD
:10372000EC04EC02EC06EC01EC05EC03EC071C00ED
:103730001C041C021C061C011C051C031C079C000D
:103740009C049C029C069C019C059C039C075C00BD
:103750005C045C025C065C015C055C035C07DC00ED
:10376000DC04DC02DC06DC01DC05DC03DC073C00FD
:103770003C043C023C063C013C053C033C07BC00CD
:10378000BC04BC02BC06BC01BC05BC03BC077C007D
:103790007C047C027C067C017C057C037C07FC00AD
:1037A000FC04FC02FC06FC01FC05FC03FC07020017
:1037B000020402020206020102050203020782005D
:1037C000820482028206820182058203820742000D
:1037D0004204420242064201420542034207C2003D
:1037E000C204C202C206C201C205C203C20722004D
:1037F0002204220222062201220522032207A2001D
:10380000A204A202A206A201A205A203A2076200CC
:103810006204620262066201620562036207E200FC
:10382000E204E202E206E201E205E203E20712003C
:10383000120412021206120112051203120792005C
:10384000920492029206920192059203920752000C
:103850005204520252065201520552035207D2003C
:10386000D204D202D206D201D205D203D20732004C
:103870003204320232063201320532033207B2001C
:10388000B204B202B206B201B205B203B2077200CC
:103890007204720272067201720572037207F200FC
:1038A000F204F202F206F201F205F203F2070A0054
:1038B0000A040A020A060A010A050A030A078A001C
:1038C0008A048A028A068A018A058A038A074A00CC
:1038D0004A044A024A064A014A054A034A07CA00FC
:1038E000CA04CA02CA06CA01CA05CA03CA072A000C
:1038F0002A042A022A062A012A052A032A07AA00DC
:10390000AA04AA02AA06AA01AA05AA03AA076A008B
:103910006A046A026A066A016A056A036A07EA00BB
:10392000EA04EA02EA06EA01EA05EA03EA071A00FB
:103930001A041A021A061A011A051A031A079A001B
:103940009A049A029A069A019A059A039A075A00CB
:103950005A045A025A065A015A055A035A07DA00FB
:10396000DA04DA02DA06DA01DA05DA03DA073A000B
:103970003A043A023A063A013A053A033A07BA00DB
:10398000BA04BA02BA06BA01BA05BA03BA077A008B
:103990007A047A027A067A017A057A037A07FA00BB
:1039A000FA04FA02FA06FA01FA05FA03FA0706001F
:1039B000060406020606060106050603060786003B
:1039C00086048602860686018605860386074600EB
:1039D0004604460246064601460546034607C6001B
:1039E000C604C602C606C601C605C603C60726002B
:1039F0002604260226062601260526032607A600FB
:103A0000A604A602A606A601A605A603A6076600AA
:103A10006604660266066601660566036607E600DA
:103A2000E604E602E606E601E605E603E60716001A
:103A3000160416021606160116051603160796003A
:103A400096049602960696019605960396075600EA
:103A50005604560256065601560556035607D6001A
:103A6000D604D602D606D601D605D603D60736002A
:103A70003604360236063601360536033607B600FA
:103A8000B604B602B606B601B605B603B6077600AA
:103A90007604760276067601760576037607F600DA
:103AA000F604F602F606F601F605F603F6070E0032
:103AB0000E040E020E060E010E050E030E078E00FA
:103AC0008E048E028E068E018E058E038E074E00AA
:103AD0004E044E024E064E014E054E034E07CE00DA
:103AE000CE04CE02CE06CE01CE05CE03CE072E00EA
:103AF0002E042E022E062E012E052E032E07AE00BA
:103B0000AE04AE02AE06AE01AE05AE03AE076E0069
:103B10006E046E026E066E016E056E036E07EE0099
:103B2000EE04EE02EE06EE01EE05EE03EE071E00D9
:103B30001E041E021E061E011E051E031E079E00F9
:103B40009E049E029E069E019E059E039E075E00A9
:103B50005E045E025E065E015E055E035E07DE00D9
:103B6000DE04DE02DE06DE01DE05DE03DE073E00E9
:103B70003E043E023E063E013E053E033E07BE00B9
:103B8000BE04BE02BE06BE01BE05BE03BE077E0069
:103B90007E047E027E067E017E057E037E07FE0099
:103BA000FE04FE02FE06FE01FE05FE03FE07010006
:103BB00000061016000610160000803F00000000EE
:103BC000ECFF7F3FD40FC93AB1FF7F3FC70F493B9E
:103BD0004EFF7F3FC1CB963BC4FE7F3F890FC93B61
:103BE00013FE7F3F3053FB3B39FD7F3F59CB163CE3
:103BF00039FC7F3F02ED2F3C11FB7F3F900E493C8B
:103C0000C1F97F3F0030623C4AF87F3F4B517B3C1B
:103C1000ACF67F3F38398A3CE6F47F3FB6C9963C24
:103C2000F8F27F3F1C5AA33CE3F07F3F69EAAF3CC8
:103C3000A7EE7F3F9B7ABC3C43EC7F3FB00AC93C78
:103C4000B8E97F3FA69AD53C05E77F3F7B2AE23C57
:103C50002BE47F3F2DBAEE3C29E17F3FB949FB3C85
:103C600000DE7F3F90EC033DAFDA7F3F2F340A3D0B
:103C700037D77F3FB87B103D98D37F3F2CC3163D8D
:103C8000D1CF7F3F880A1D3DE2CB7F3FCC51233D02
:103C9000CCC77F3FF698293D8FC37F3F07E02F3D7C
:103CA0002ABF7F3FFC26363D9EBA7F3FD56D3C3D07
:103CB000EAB57F3F91B4423D0FB17F3F2FFB483DB6
:103CC0000DAC7F3FAF414F3DE3A67F3F0E88553D92
:103CD00091A17F3F4CCE5B3D189C7F3F6814623DB5
:103CE00078967F3F625A683DB1907F3F38A06E3D25
:103CF000C28A7F3FE9E5743DAB847F3F742B7B3DF7
:103D00006D7E7F3F6CB8803D08787F3F0ADB833D46
:103D10007B717F3F94FD863DC76A7F3F0A208A3DC5
:103D2000EC637F3F6A428D3DE95C7F3FB464903D28
:103D3000BF557F3FE786933D6D4E7F3F05A9963D7A
:103D4000F4467F3F0ACB993D543F7F3FF9EC9C3DC1
:103D50008D377F3FCF0EA03D9D2F7F3F8C30A33D01
:103D600087277F3F3052A63D491F7F3FBA73A93D49
:103D7000E4167F3F2B95AC3D580E7F3F80B6AF3D9C
:103D8000A4057F3FBBD7B23DC9FC7E3FDAF8B53D05
:103D9000C7F37E3FDD19B93D9DEA7E3FC33ABC3D86
:103DA0004CE17E3F8D5BBF3DD4D77E3F397CC23D29
:103DB00034CE7E3FC69CC53D6DC47E3F36BDC83DFA
:103DC0007FBA7E3F86DDCB3D69B07E3FB7FDCE3DFD
:103DD0002DA67E3FC81DD23DC99B7E3FB93DD53D36
:103DE0003D917E3F895DD83D8B867E3F377DDB3DB3
:103DF000B17B7E3FC49CDE3DB0707E3F2EBCE13D7A
:103E000088657E3F76DBE43D385A7E3F9AFAE73D8F
:103E1000C14E7E3F9A19EB3D23437E3F7638EE3DFF
:103E20005E377E3F2E57F13D722B7E3FC075F43DCD
:103E30005E1F7E3F2C94F73D24137E3F73B2FA3D04
:103E4000C2067E3F92D0FD3D38FA7D3F4577003E69
:103E500088ED7D3F2E06023EB1E07D3F0295033E98
:103E6000B2D37D3FC223053E8CC67D3F6EB2063E77
:103E700040B97D3F0541083ECCAB7D3F86CF093E32
:103E8000309E7D3FF35D0B3E6E907D3F4AEC0C3ED5
:103E900085827D3F8B7A0E3E74747D3FB708103E5D
:103EA0003D667D3FCC96113EDE577D3FCA24133ED2
:103EB00059497D3FB2B2143EAC3A7D3F8340163E35
:103EC000D82B7D3F3DCE173EDD1C7D3FE05B193E8C
:103ED000BC0D7D3F6BE91A3E73FE7C3FDE761C3ED7
:103EE00003EF7C3F38041E3E6CDF7C3F7B911F3E1E
:103EF000AECF7C3FA51E213EC9BF7C3FB6AB223E64
:103F0000BDAF7C3FAD38243E8A9F7C3F8CC5253EAB
:103F1000318F7C3F5152273EB07E7C3FFCDE283EF5
:103F2000086E7C3F8D6B2A3E3A5D7C3F04F82B3E49
:103F3000444C7C3F61842D3E283B7C3FA2102F3EA9
:103F4000E5297C3FC99C303E7A187C3FD428323E1C
:103F5000E9067C3FC4B4333E31F57B3F9840353EA3
:103F600053E37B3F50CC363E4DD17B3FEC57383E40
:103F700020BF7B3F6CE3393ECDAC7B3FCF6E3B3EF9
:103F8000539A7B3F15FA3C3EB2877B3F3E853E3ECF
:103F9000EA747B3F4910403EFC617B3F379B413ECA
:103FA000E74E7B3F0726433EAB3B7B3FB9B0443EE9
:103FB00048287B3F4D3B463EBE147B3FC2C5473E33
:103FC0000E017B3F1850493E37ED7A3F4FDA4A3EAB
:103FD0003AD97A3F67644C3E16C57A3F60EE4D3E53
:103FE000CBB07A3F38784F3E599C7A3FF101513E31
:103FF000C1877A3F898B523E02737A3F0115543E46
:104000001C5E7A3F589E553E10497A3F8F27573E97
:10401000DD337A3FA4B0583E841E7A3F97395A3E2A
:1040200004097A3F6AC25B3E5EF3793F1A4B5D3EFC
:1040300091DD793FA8D35E3E9DC7793F135C603E1A
:1040400083B1793F5CE4613E439B793F836C633E7F
:10405000DC84793F86F4643E4E6E793F667C663E32
:104060009A57793F2204683EC040793FBA8B693E37
:10407000BF29793F2F136B3E9812793F7F9A6C3E90
:104080004AFB783FAB216E3ED6E3783FB2A86F3E45
:104090003BCC783F942F713E7BB4783F51B6723E53
:1040A000939C783FE83C743E8684783F5AC3753EC3
:1040B000526C783FA649773EF853783FCCCF783E94
:1040C000773B783FCB557A3ED122783FA4DB7B3ECD
:1040D000040A783F56617D3E10F1773FE1E67E3E6F
:1040E000F7D7773F2236803EB7BE773FC0F8803E95
:1040F00051A5773F4ABB813EC58B773FC07D823E4D
:104100001372773F2240833E3A58773F7002843ED5
:104110003C3E773FAAC4843E1724773FCE86853E37
:10412000CC09773FDF48863E5BEF763FDA0A873E71
:10413000C4D4763FC1CC873E07BA763F938E883E83
:10414000249F763F5050893E1B84763FF8118A3E6B
:10415000EC68763F8AD38A3E974D763F07958B3E33
:104160001B32763F6E568C3E7A16763FC0178D3ED8
:10417000B3FA753FFCD88D3EC6DE753F229A8E3E5F
:10418000B3C2753F325B8F3E7BA6753F2C1C903EC1
:104190001C8A753F10DD903E976D753FDD9D913E09
:1041A000ED50753F945E923E1D34753F351F933E32
:1041B0002717753FBFDF933E0BFA743F31A0943E43
:1041C000C9DC743F8D60953E62BF743FD220963E3D
:1041D000D5A1743F00E1963E2284743F17A1973E1B
:1041E0004966743F1661983E4B48743FFE20993EE5
:1041F000272A743FCEE0993EDD0B743F86A09A3E9D
:104200006EED733F27609B3ED9CE733FAF1F9C3E40
:104210001FB0733F20DF9C3E3F91733F789E9D3ED1
:104220003972733FB85D9E3E0E53733FDF1C9F3E55
:10423000BE33733FEEDB9F3E4714733FE59AA03ECB
:10424000ACF4723FC259A13EEBD4723F8718A23E34
:1042500004B5723F33D7A23EF894723FC595A33E92
:10426000C774723F3F54A43E7054723F9F12A53EE4
:10427000F433723FE5D0A53E5213723F128FA63E33
:104280008CF2713F254DA73E9FD1713F1F0BA83E79
:104290008EB0713FFEC8A83E578F713FC486A93EBD
:1042A000FB6D713F6F44AA3E7A4C713F0102AB3EF9
:1042B000D42A713F77BFAB3E0809713FD47CAC3E36
:1042C00017E7703F153AAD3E02C5703F3CF7AD3E73
:1042D000C6A2703F49B4AE3E6680703F3A71AF3EB1
:1042E000E15D703F102EB03E373B703FCBEAB03EF1
:1042F0006718703F6BA7B13E73F56F3FEF63B23E37
:104300005AD26F3F5820B33E1BAF6F3FA5DCB33E80
:10431000B88B6F3FD698B43E30686F3FEC54B53ED3
:1043200083446F3FE610B63EB0206F3FC3CCB63E2D
:10433000BAFC6E3F8488B73E9ED86E3F2A44B83E92
:104340005DB46E3FB2FFB83EF88F6E3F1EBBB93E04
:104350006D6B6E3F6E76BA3EBE466E3FA031BB3E81
:10436000EB216E3FB6ECBB3EF2FC6D3FAFA7BC3E0F
:10437000D5D76D3F8B62BD3E93B26D3F4A1DBE3EA9
:104380002D8D6D3FEBD7BE3EA1676D3F6F92BF3E57
:10439000F2416D3FD54CC03E1D1C6D3F1E07C13E16
:1043A00024F66C3F48C1C13E07D06C3F557BC23EEE
:1043B000C5A96C3F4435C33E5E836C3F15EFC33ED9
:1043C000D45C6C3FC8A8C43E24366C3F5C62C53EDA
:1043D000500F6C3FD21BC63E58E86B3F29D5C63EF6
:1043E0003BC16B3F628EC73EFB996B3F7C47C83E2B
:1043F00095726B3F7700C93E0C4B6B3F53B9C93E7A
:104400005E236B3F1072CA3E8CFB6A3FAE2ACB3EE6
:1044100095D36A3F2CE3CB3E7BAB6A3F8B9BCC3E74
:104420003C836A3FCA53CD3ED95A6A3FEA0BCE3E1F
:1044300052326A3FEAC3CE3EA7096A3FCA7BCF3EEB
:10444000D7E0693F8A33D03EE4B7693F2AEBD03EDC
:10445000CC8E693FAAA2D13E9165693F095AD23EEE
:10446000323C693F4811D33EAE12693F67C8D33E24
:1044700007E9683F647FD43E3CBF683F4136D53E84
:104480004C95683FFDECD53E396B683F99A3D63E0D
:104490000341683F135AD73EA816683F6B10D83EB9
:1044A0002AEC673FA3C6D83E87C1673FB97CD93E97
:1044B000C196673FAD32DA3ED86B673F80E8DA3E9F
:1044C000CA40673F319EDB3E9915673FC153DC3ED2
:1044D00045EA663F2E09DD3ECCBE663F79BEDD3E35
:1044E0003093663FA273DE3E7167663FA928DF3EC8
:1044F0008E3B663F8DDDDF3E880F663F4F92E03E8C
:104500005EE3653FEE46E13E10B7653F6AFBE13E84
:10451000A08A653FC4AFE23E0B5E653FFA63E33EAF
:104520005431653F0E18E43E7904653FFECBE43E0E
:104530007BD7643FCB7FE53E59AA643F7533E63EA7
:10454000147D643FFBE6E63EAC4F643F5D9AE73E78
:104550002122643F9C4DE83E73F4633FB700E93E7F
:10456000A1C6633FAEB3E93EAC98633F8166EA3EC5
:10457000956A633F3019EB3E5A3C633FBBCBEB3E41
:10458000FC0D633F217EEC3E7BDF623F6330ED3EFE
:10459000D7B0623F80E2ED3E1082623F7994EE3EFA
:1045A0002653623F4C46EF3E1A24623FFBF7EF3E34
:1045B000EAF4613F85A9F03E98C5613FEA5AF13EB1
:1045C0002296613F290CF23E8A66613F43BDF23E6E
:1045D000D036613F386EF33EF206613F071FF43E6E
:1045E000F2D6603FB1CFF43ECFA6603F3580F53EB6
:1045F0008976603F9330F63E2146603FCBE0F63E41
:104600009615603FDC90F73EE9E45F3FC840F83E16
:1046100019B45F3F8EF0F83E27835F3F2DA0F93E2F
:1046200012525F3FA54FFA3EDB205F3FF7FEFA3E96
:1046300081EF5E3F22AEFB3E05BE5E3F275DFC3E46
:10464000678C5E3F040CFD3EA65A5E3FBBBAFD3E42
:10465000C3285E3F4A69FE3EBEF65D3FB217FF3E8D
:1046600097C45D3FF3C5FF3E4D925D3F063A003F64
:10467000E15F5D3FFF90003F532D5D3FE4E7003F6A
:10468000A3FA5C3FB53E013FD1C75C3F7395013F44
:10469000DD945C3F1CEC013FC7615C3FB142023FCF
:1046A0008E2E5C3F3299023F34FB5B3F9FEF023F0F
:1046B000B8C75B3FF845033F1A945B3F3D9C033FFF
:1046C0005A605B3F6DF2033F792C5B3F8948043FA2
:1046D00075F85A3F919E043F50C45A3F84F4043FFA
:1046E00009905A3F624A053FA05B5A3F2CA0053F04
:1046F00016275A3FE2F5053F6AF2593F824B063FC3
:104700009CBD593F0EA1063FAD88593F86F6063F36
:104710009C53593FE84B073F6A1E593F36A1073F5C
:1047200017E9583F6FF6073FA1B3583F924B083F38
:104730000B7E583FA1A0083F5348583F9BF5083FC8
:104740007912583F7F4A093F7FDC573F4E9F093F10
:1047500063A6573F09F4093F2670573FAD480A3F0B
:10476000C739573F3D9D0A3F4803573FB7F10A3FBE
:10477000A7CC563F1C460B3FE595563F6B9A0B3F27
:10478000025F563FA5EE0B3FFE27563FC9420C3F46
:10479000D9F0553FD7960C3F93B9553FD0EA0C3F1F
:1047A0002C82553FB33E0D3FA44A553F81920D3FA9
:1047B000FB12553F38E60D3F31DB543FDA390E3FEF
:1047C00047A3543F658D0E3F3B6B543FDBE00E3FEC
:1047D0000F33543F3B340F3FC3FA533F84870F3F9F
:1047E00055C2533FB8DA0F3FC789533FD52D103F0D
:1047F0001851533FDC80103F4918533FCDD3103F31
:1048000059DF523FA726113F49A6523F6B79113F0E
:10481000186D523F19CC113FC633523FB01E123FA4
:1048200054FA513F3071123FC2C0513F9AC3123FF8
:104830001087513FEE15133F3D4D513F2A68133FFE
:104840004A13513F50BA133F37D9503F5F0C143FC2
:10485000039F503F585E143FAF64503F39B0143F40
:104860003B2A503F0402153FA8EF4F3FB753153F77
:10487000F4B44F3F54A5153F1F7A4F3FD9F6153F6B
:104880002B3F4F3F4748163F17044F3F9F99163F16
:10489000E4C84E3FDFEA163F908D4E3F073C173F7E
:1048A0001C524E3F188D173F89164E3F12DE173FA0
:1048B000D5DA4D3FF52E183F029F4D3FC07F183F80
:1048C00010634D3F73D0183FFD264D3F0F21193F18
:1048D000CBEA4C3F9471193F79AE4C3F00C2193F6F
:1048E00008724C3F55121A3F78354C3F93621A3F7D
:1048F000C7F84B3FB8B21A3FF8BB4B3FC6021B3F4D
:10490000097F4B3FBB521B3FFA414B3F99A21B3FD4
:10491000CC044B3F5FF21B3F7FC74A3F0C421C3F1A
:10492000138A4A3FA2911C3F874C4A3F1FE11C3F1C
:10493000DC0E4A3F84301D3F12D1493FD17F1D3FDD
:104940002993493F06CF1D3F2155493F221E1E3F57
:10495000FA16493F266D1E3FB3D8483F12BC1E3F92
:104960004E9A483FE50A1F3FCA5B483F9F591F3F89
:10497000271D483F41A81F3F65DE473FCBF61F3F3D
:10498000849F473F3B45203F8560473F9393203FAF
:104990006721473FD2E1203F2AE2463FF92F213FDE
:1049A000CEA2463F067E213F5463463FFBCB213FCC
:1049B000BB23463FD719223F03E4453F9967223F77
:1049C0002DA4453F43B5223F3964453FD302233FE1
:1049D0002624453F4B50233FF5E3443FA99D233F09
:1049E000A5A3443FEEEA233F3763443F1A38243FF0
:1049F000AB22443F2C85243F00E2433F25D2243F95
:104A000038A1433F041F253F5160433FCB6B253FF7
:104A10004C1F433F77B8253F29DE423F0A05263F1A
:104A2000E89C423F8451263F895B423FE39D263FFD
:104A30000B1A423F2AEA263F70D8413F5636273F9D
:104A4000B796413F6882273FE154413F61CE273FFF
:104A5000EC12413F401A283FDAD0403F0566283F1C
:104A6000A98E403FB0B1283F5C4C403F41FD283FFC
:104A7000F009403FB848293F67C73F3F1594293F99
:104A8000C0843F3F57DF293FFC413F3F802A2A3FF8
:104A90001BFF3E3F8E752A3F1BBC3E3F82C02A3F14
:104AA000FF783E3F5B0B2B3FC5353E3F1B562B3FF0
:104AB0006EF23D3FBFA02B3FF9AE3D3F4AEB2B3F8F
:104AC000676B3D3FB9352C3FB8273D3F0F802C3FEA
:104AD000ECE33C3F49CA2C3F03A03C3F69142D3F07
:104AE000FC5B3C3F6F5E2D3FD9173C3F59A82D3FE3
:104AF00098D33B3F29F22D3F3B8F3B3FDE3B2E3F80
:104B0000C14A3B3F78852E3F29063B3FF7CE2E3FDB
:104B100075C13A3F5B182F3FA47C3A3FA5612F3FF8
:104B2000B7373A3FD3AA2F3FACF2393FE6F32F3FD6
:104B300085AD393FDE3C303F4268393FBB85303F71
:104B4000E122393F7CCE303F65DD383F2217313FCF
:104B5000CB97383FAD5F313F1652383F1DA8313FEC
:104B6000430C383F71F0313F55C6373FAA38323FCA
:104B70004A80373FC780323F233A373FC9C8323F68
:104B8000DFF3363FAF10333F7FAD363F7A58333FC8
:104B90000467363F29A0333F6C20363FBCE7333FE4
:104BA000B8D9353F342F343FE792353F8F76343FC5
:104BB000FB4B353FCFBD343FF304353FF304353F66
:104BC000CFBD343FFB4B353F8F76343FE792353FC7
:104BD000342F343FB8D9353FBCE7333F6C20363FE4
:104BE00029A0333F0467363F7A58333F7FAD363FC5
:104BF000AF10333FDFF3363FC9C8323F233A373F68
:104C0000C780323F4A80373FAA38323F55C6373FC8
:104C100071F0313F430C383F1DA8313F1652383FE9
:104C2000AD5F313FCB97383F2217313F65DD383FCD
:104C30007CCE303FE122393FBB85303F4268393F6F
:104C4000DE3C303F85AD393FE6F32F3FACF2393FD4
:104C5000D3AA2F3FB7373A3FA5612F3FA47C3A3FF5
:104C60005B182F3F75C13A3FF7CE2E3F29063B3FD9
:104C700078852E3FC14A3B3FDE3B2E3F3B8F3B3F7B
:104C800029F22D3F98D33B3F59A82D3FD9173C3FE0
:104C90006F5E2D3FFC5B3C3F69142D3F03A03C3F02
:104CA00049CA2C3FECE33C3F0F802C3FB8273D3FE7
:104CB000B9352C3F676B3D3F4AEB2B3FF9AE3D3F8B
:104CC000BFA02B3F6EF23D3F1B562B3FC5353E3FED
:104CD0005B0B2B3FFF783E3F82C02A3F1BBC3E3F11
:104CE0008E752A3F1BFF3E3F802A2A3FFC413F3FF3
:104CF00057DF293FC0843F3F1594293F67C73F3F97
:104D0000B848293FF009403F41FD283F5C4C403FF7
:104D1000B0B1283FA98E403F0566283FDAD0403F1A
:104D2000401A283FEC12413F61CE273FE154413FFA
:104D30006882273FB796413F5636273F70D8413F9C
:104D40002AEA263F0B1A423FE39D263F895B423FFA
:104D50008451263FE89C423F0A05263F29DE423F18
:104D600077B8253F4C1F433FCB6B253F5160433FF6
:104D7000041F253F38A1433F25D2243F00E2433F93
:104D80002C85243FAB22443F1A38243F3763443FED
:104D9000EEEA233FA5A3443FA99D233FF5E3443F0B
:104DA0004B50233F2624453FD302233F3964453FE0
:104DB00043B5223F2DA4453F9967223F03E4453F79
:104DC000D719223FBB23463FFBCB213F5463463FCD
:104DD000067E213FCEA2463FF92F213F2AE2463FE1
:104DE000D2E1203F6721473F9393203F8560473FB3
:104DF0003B45203F849F473FCBF61F3F65DE473F43
:104E000041A81F3F271D483F9F591F3FCA5B483F8E
:104E1000E50A1F3F4E9A483F12BC1E3FB3D8483F99
:104E2000266D1E3FFA16493F221E1E3F2155493F5F
:104E300006CF1D3F2993493FD17F1D3F12D1493FE6
:104E400084301D3FDC0E4A3F1FE11C3F874C4A3F28
:104E5000A2911C3F138A4A3F0C421C3F7FC74A3F26
:104E60005FF21B3FCC044B3F99A21B3FFA414B3FE3
:104E7000BB521B3F097F4B3FC6021B3FF8BB4B3F5A
:104E8000B8B21A3FC7F84B3F93621A3F78354C3F90
:104E900055121A3F08724C3F00C2193F79AE4C3F81
:104EA0009471193FCBEA4C3F0F21193FFD264D3F2E
:104EB00073D0183F10634D3FC07F183F029F4D3F96
:104EC000F52E183FD5DA4D3F12DE173F89164E3FBB
:104ED000188D173F1C524E3F073C173F908D4E3F99
:104EE000DFEA163FE4C84E3F9F99163F17044F3F35
:104EF0004748163F2B3F4F3FD9F6153F1F7A4F3F8C
:104F000054A5153FF4B44F3FB753153FA8EF4F3F9B
:104F10000402153F3B2A503F39B0143FAF64503F65
:104F2000585E143F039F503F5F0C143F37D9503FEA
:104F300050BA133F4A13513F2A68133F3D4D513F2A
:104F4000EE15133F1087513F9AC3123FC2C0513F25
:104F50003071123F54FA513FB01E123FC633523FD8
:104F600019CC113F186D523F6B79113F49A6523F42
:104F7000A726113F59DF523FCDD3103F4918533F69
:104F8000DC80103F1851533FD52D103FC789533F48
:104F9000B8DA0F3F55C2533F84870F3FC3FA533FE0
:104FA0003B340F3F0F33543FDBE00E3F3B6B543F2E
:104FB000658D0E3F47A3543FDA390E3F31DB543F36
:104FC00038E60D3FFB12553F81920D3FA44A553FF5
:104FD000B33E0D3F2C82553FD0EA0C3F93B9553F6D
:104FE000D7960C3FD9F0553FC9420C3FFE27563F9C
:104FF000A5EE0B3F025F563F6B9A0B3FE595563F80
:105000001C460B3FA7CC563FB7F10A3F4803573F1A
:105010003D9D0A3FC739573FAD480A3F2670573F6D
:1050200009F4093F63A6573F4E9F093F7FDC573F76
:105030007F4A093F7912583F9BF5083F5348583F34
:10504000A1A0083F0B7E583F924B083FA1B3583FA9
:105050006FF6073F17E9583F36A1073F6A1E593FD1
:10506000E84B073F9C53593F86F6063FAD88593FB2
:105070000EA1063F9CBD593F824B063F6AF2593F45
:10508000E2F5053F16275A3F2CA0053FA05B5A3F8B
:10509000624A053F09905A3F84F4043F50C45A3F86
:1050A000919E043F75F85A3F8948043F792C5B3F35
:1050B0006DF2033F5A605B3F3D9C033F1A945B3F98
:1050C000F845033FB8C75B3F9FEF023F34FB5B3FB0
:1050D0003299023F8E2E5C3FB142023FC7615C3F76
:1050E0001CEC013FDD945C3F7395013FD1C75C3FF1
:1050F000B53E013FA3FA5C3FE4E7003F532D5D3F1F
:10510000FF90003FE15F5D3F063A003F4D925D3FFB
:10511000F3C5FF3E97C45D3FB217FF3EBEF65D3F4D
:105120004A69FE3EC3285E3FBBBAFD3EA65A5E3FBB
:10513000040CFD3E678C5E3F275DFC3E05BE5E3F76
:1051400022AEFB3E81EF5E3FF7FEFA3EDB205F3F83
:10515000A54FFA3E12525F3F2DA0F93E27835F3FD5
:105160008EF0F83E19B45F3FC840F83EE9E45F3F77
:10517000DC90F73E9615603FCBE0F63E2146603F5F
:105180009330F63E8976603F3580F53ECFA6603F8E
:10519000B1CFF43EF2D6603F071FF43EF206613F06
:1051A000386EF33ED036613F43BDF23E8A66613FC2
:1051B000290CF23E2296613FEA5AF13E98C5613FC2
:1051C00085A9F03EEAF4613FFBF7EF3E1A24623F07
:1051D0004C46EF3E2653623F7994EE3E1082623F8A
:1051E00080E2ED3ED7B0623F6330ED3E7BDF623F51
:1051F000217EEC3EFC0D633FBBCBEB3E5A3C633F54
:105200003019EB3E956A633F8166EA3EAC98633F96
:10521000AEB3E93EA1C6633FB700E93E73F4633F16
:105220009C4DE83E2122643F5D9AE73EAC4F643FCF
:10523000FBE6E63E147D643F7533E63E59AA643FC3
:10524000CB7FE53E7BD7643FFECBE43E7904653FF0
:105250000E18E43E5431653FFA63E33E0B5E653F52
:10526000C4AFE23EA08A653F6AFBE13E10B7653FEE
:10527000EE46E13E5EE3653F4F92E03E880F663FBB
:105280008DDDDF3E8E3B663FA928DF3E7167663FBE
:10529000A273DE3E3093663F79BEDD3ECCBE663FF4
:1052A0002E09DD3E45EA663FC153DC3E9915673F56
:1052B000319EDB3ECA40673F80E8DA3ED86B673FED
:1052C000AD32DA3EC196673FB97CD93E87C1673FB0
:1052D000A3C6D83E2AEC673F6B10D83EA816683F9D
:1052E000135AD73E0341683F99A3D63E396B683FB6
:1052F000FDECD53E4C95683F4136D53E3CBF683FFE
:10530000647FD43E07E9683F67C8D33EAE12693F69
:105310004811D33E323C693F095AD23E9165693FFC
:10532000AAA2D13ECC8E693F2AEBD03EE4B7693FBA
:105330008A33D03ED7E0693FCA7BCF3EA7096A3F98
:10534000EAC3CE3E52326A3FEA0BCE3ED95A6A3F9A
:10535000CA53CD3E3C836A3F8B9BCC3E7BAB6A3FBE
:105360002CE3CB3E95D36A3FAE2ACB3E8CFB6A3F03
:105370001072CA3E5E236B3F53B9C93E0C4B6B3F64
:105380007700C93E95726B3F7C47C83EFB996B3FE7
:10539000628EC73E3BC16B3F29D5C63E58E86B3F86
:1053A000D21BC63E500F6C3F5C62C53E24366C3F3C
:1053B000C8A8C43ED45C6C3F15EFC33E5E836C3F0F
:1053C0004435C33EC5A96C3F557BC23E07D06C3FF8
:1053D00048C1C13E24F66C3F1E07C13E1D1C6D3FF7
:1053E000D54CC03EF2416D3F6F92BF3EA1676D3F0D
:1053F000EBD7BE3E2D8D6D3F4A1DBE3E93B26D3F35
:105400008B62BD3ED5D76D3FAFA7BC3EF2FC6D3F72
:10541000B6ECBB3EEB216E3FA031BB3EBE466E3FBD
:105420006E76BA3E6D6B6E3F1EBBB93EF88F6E3F17
:10543000B2FFB83E5DB46E3F2A44B83E9ED86E3F80
:105440008488B73EBAFC6E3FC3CCB63EB0206F3FF7
:10545000E610B63E83446F3FEC54B53E30686F3F74
:10546000D698B43EB88B6F3FA5DCB33E1BAF6F3F01
:105470005820B33E5AD26F3FEF63B23E73F56F3F91
:105480006BA7B13E6718703FCBEAB03E373B703F29
:10549000102EB03EE15D703F3A71AF3E6680703FC6
:1054A00049B4AE3EC6A2703F3CF7AD3E02C5703F68
:1054B000153AAD3E17E7703FD47CAC3E0809713F0A
:1054C00077BFAB3ED42A713F0102AB3E7A4C713FAD
:1054D0006F44AA3EFB6D713FC486A93E578F713F52
:1054E000FEC8A83E8EB0713F1F0BA83E9FD1713FF2
:1054F000254DA73E8CF2713F128FA63E5213723F8C
:10550000E5D0A53EF433723F9F12A53E7054723F22
:105510003F54A43EC774723FC595A33EF894723FB2
:1055200033D7A23E04B5723F8718A23EEBD4723F38
:10553000C259A13EACF4723FE59AA03E4714733FB6
:10554000EEDB9F3EBE33733FDF1C9F3E0E53733F27
:10555000B85D9E3E3972733F789E9D3E3F91733F8A
:1055600020DF9C3E1FB0733FAF1F9C3ED9CE733FE0
:1055700027609B3E6EED733F86A09A3EDD0B743F25
:10558000CEE0993E272A743FFE20993E4B48743F57
:105590001661983E4966743F17A1973E2284743F76
:1055A00000E1963ED5A1743FD220963E62BF743F83
:1055B0008D60953EC9DC743F31A0943E0BFA743F78
:1055C000BFDF933E2717753F351F933E1D34753F50
:1055D000945E923EED50753FDD9D913E976D753F17
:1055E00010DD903E1C8A753F2C1C903E7BA6753FBB
:1055F000325B8F3EB3C2753F229A8E3EC6DE753F48
:10560000FCD88D3EB3FA753FC0178D3E7A16763FB3
:105610006E568C3E1B32763F07958B3E974D763FFC
:105620008AD38A3EEC68763FF8118A3E1B84763F27
:105630005050893E249F763F938E883E07BA763F2E
:10564000C1CC873EC4D4763FDA0A873E5BEF763F13
:10565000DF48863ECC09773FCE86853E1724773FCC
:10566000AAC4843E3C3E773F7002843E3A58773F5E
:105670002240833E1372773FC07D823EC58B773FC9
:105680004ABB813E51A5773FC0F8803EB7BE773F09
:105690002236803EF7D7773FE1E67E3E10F1773F36
:1056A00056617D3E040A783FA4DB7B3ED122783FE1
:1056B000CB557A3E773B783FCCCF783EF853783F56
:1056C000A649773E526C783F5AC3753E8684783F30
:1056D000E83C743E939C783F51B6723E7BB4783F71
:1056E000942F713E3BCC783FB2A86F3ED6E3783F13
:1056F000AB216E3E4AFB783F7F9A6C3E9812793F11
:105700002F136B3EBF29793FBA8B693EC040793F6A
:105710002204683E9A57793F667C663E4E6E793F1A
:1057200086F4643EDC84793F836C633E439B793F1F
:105730005CE4613E83B1793F135C603E9DC7793F75
:10574000A8D35E3E91DD793F1A4B5D3E5EF3793F13
:105750006AC25B3E04097A3F97395A3E841E7A3FFB
:10576000A4B0583EDD337A3F8F27573E10497A3F29
:10577000589E553E1C5E7A3F0115543E02737A3F97
:10578000898B523EC1877A3FF101513E599C7A3F45
:1057900038784F3ECBB07A3F60EE4D3E16C57A3F2B
:1057A00067644C3E3AD97A3F4FDA4A3E37ED7A3F4A
:1057B0001850493E0E017B3FC2C5473EBE147B3F99
:1057C0004D3B463E48287B3FB9B0443EAB3B7B3F18
:1057D0000726433EE74E7B3F379B413EFC617B3FC4
:1057E0004910403EEA747B3F3E853E3EB2877B3F98
:1057F00015FA3C3E539A7B3FCF6E3B3ECDAC7B3F90
:105800006CE3393E20BF7B3FEC57383E4DD17B3FA8
:1058100050CC363E53E37B3F9840353E31F57B3FDD
:10582000C4B4333EE9067C3FD428323E7A187C3F2C
:10583000C99C303EE5297C3FA2102F3E283B7C3F8F
:1058400061842D3E444C7C3F04F82B3E3A5D7C3F06
:105850008D6B2A3E086E7C3FFCDE283EB07E7C3F8E
:105860005152273E318F7C3F8CC5253E8A9F7C3F1D
:10587000AD38243EBDAF7C3FB6AB223EC9BF7C3FB6
:10588000A51E213EAECF7C3F7B911F3E6CDF7C3F4F
:1058900038041E3E03EF7C3FDE761C3E73FE7C3FE9
:1058A0006BE91A3EBC0D7D3FE05B193EDD1C7D3F80
:1058B0003DCE173ED82B7D3F8340163EAC3A7D3F10
:1058C000B2B2143E59497D3FCA24133EDE577D3F94
:1058D000CC96113E3D667D3FB708103E74747D3F07
:1058E0008B7A0E3E85827D3F4AEC0C3E6E907D3F6A
:1058F000F35D0B3E309E7D3F86CF093ECCAB7D3FB6
:105900000541083E40B97D3F6EB2063E8CC67D3FE4
:10591000C223053EB2D37D3F0295033EB1E07D3FF9
:105920002E06023E88ED7D3F4577003E38FA7D3FEA
:1059300092D0FD3DC2067E3F73B2FA3D24137E3FF6
:105940002C94F73D5E1F7E3FC075F43D722B7E3F69
:105950002E57F13D5E377E3F7638EE3D23437E3F46
:105960009A19EB3DC14E7E3F9AFAE73D385A7E3F89
:1059700076DBE43D88657E3F2EBCE13DB0707E3F26
:10598000C49CDE3DB17B7E3F377DDB3D8B867E3F19
:10599000895DD83D3D917E3FB93DD53DC99B7E3F58
:1059A000C81DD23D2DA67E3FB7FDCE3D69B07E3FDE
:1059B00086DDCB3D7FBA7E3F36BDC83D6DC47E3FA0
:1059C000C69CC53D34CE7E3F397CC23DD4D77E3F98
:1059D0008D5BBF3D4CE17E3FC33ABC3D9DEA7E3FBF
:1059E000DD19B93DC7F37E3FDAF8B53DC9FC7E3F0E
:1059F000BBD7B23DA4057F3F80B6AF3D580E7F3F79
:105A00002B95AC3DE4167F3FBA73A93D491F7F3FFC
:105A10003052A63D87277F3F8C30A33D9D2F7F3F8F
:105A2000CF0EA03D8D377F3FF9EC9C3D543F7F3F2B
:105A30000ACB993DF4467F3F05A9963D6D4E7F3FC9
:105A4000E786933DBF557F3FB464903DE95C7F3F5F
:105A50006A428D3DEC637F3F0A208A3DC76A7F3FE3
:105A600094FD863D7B717F3F0ADB833D08787F3F55
:105A70006CB8803D6D7E7F3F742B7B3DAB847F3F58
:105A8000E9E5743DC28A7F3F38A06E3DB1907F3F0B
:105A9000625A683D78967F3F6814623D189C7F3F4C
:105AA0004CCE5B3D91A17F3F0E88553DE3A67F3FE5
:105AB000AF414F3D0DAC7F3F2FFB483D0FB17F3FC6
:105AC00091B4423DEAB57F3FD56D3C3D9EBA7F3FE4
:105AD000FC26363D2ABF7F3F07E02F3D8FC37F3F27
