:020000040800F2
:10000000000001209D3600083D1600083F1600083C
:1000100041160008431600084516000800000000BD
:10002000000000000000000000000000471600086B
:1000300049160008000000004B1600084D16000885
:10004000ED360008ED360008ED360008ED36000804
:10005000ED360008ED360008ED360008ED360008F4
:10006000ED360008ED360008ED360008ED360008E4
:10007000ED360008ED360008ED360008ED360008D4
:10008000ED360008ED360008ED36000800000000EF
:10009000000000000000000000000000ED36000835
:1000A000ED360008ED360008ED360008ED360008A4
:1000B000ED360008ED360008ED360008ED36000894
:1000C000ED360008ED360008ED360008ED36000884
:1000D000ED360008ED360008ED360008000000009F
:1000E000ED360008ED360008ED360008000000008F
:1000F000000000000000000000000000ED360008D5
:1001000000000000ED360008ED360008ED3600086E
:1001100000000000000000000000000000000000DF
:1001200055160008ED360008ED360008ED360008DB
:10013000ED36000800000000000000000000000094
:10014000000000000000000000000000ED36000884
:10015000ED360008ED360008ED360008ED360008F3
:10016000ED360008ED360008000000000000000039
:10017000000000000000000000000000000000007F
:1001800000000000ED360008000000000000000044
:04019000ED36000840
:100194000348044B834202D0034B03B11847704712
:1001A4000C0000200C000020000000000548064957
:1001B4000B1AD90F01EBA301491002D0034B03B171
:1001C400184770470C0000200C00002000000000BD
:1001D40010B5064C237843B9FFF7DAFF044B13B18B
:1001E4000448AFF300800123237010BD0C000020ED
:1001F40000000000F036000808B5044B1BB10449A8
:100204000448AFF30080BDE80840CFE700000000D9
:1002140010000020F036000870B50D4E0D4D761B11
:10022400B61006D0002455F8043B01349847A64282
:10023400F9D1094E094D761B03F058FAB61006D0D1
:10024400002455F8043B01349847A642F9D170BD07
:1002540028BF000828BF00082CBF000828BF0008DA
:10026400830730B548D0541E002A3FD0CAB2034693
:1002740001E0013C3AD303F8012B9D07F9D1032C8B
:100284002DD9CDB245EA05250F2C45EA054536D9C9
:10029400A4F1100222F00F0C03F1200EE6444FEA01
:1002A400121C03F1100242E9045542E902551032CE
:1002B4007245F8D10CF1010214F00C0F03EB021299
:1002C40004F00F0C13D0ACF1040323F00303043344
:1002D400134442F8045B9342FBD10CF003042CB1A9
:1002E400CAB21C4403F8012B9C42FBD130BD6446C6
:1002F4001346002CF4D1F9E703461446BFE71A4627
:10030400A446E0E730B5044681B0A0786268A389CA
:100314000D462188012805D194ED040A284600F0F1
:10032400C5F902E0284600F00FF8E078012808D16A
:10033400A368E2892188284601B0BDE8304000F076
:100344007DBC01B030BD00002DE9F44F2DED028BD2
:1003540082B00F46994609EB4901C90000918446D1
:10036400014690461346BE085FEA970001EBC605B6
:1003740006EB970495ED001A9CED000A92ED006AD5
:10038400D2ED016ADCED010A0D1D05EBC60A05EB91
:10039400C405DAED001AD5ED002A01EBC40A30EEEB
:1003A400A25A9AED002A04EB970A01EBCA0530EE33
:1003B400024A95ED003A0D1D05EBCA0530EE420ADE
:1003C400D5ED003A71EE034A34EE242A8CED002A6E
:1003D40071EEA35A35EE252A31EE431A70EEE20A85
:1003E40071EEE31A8CED012A30EE212A70EEC12A57
:1003F40075EE653A34EE643A30EE610A71EE200A25
:1004040023EE065A01EBC60598ED001AD8ED011A41
:1004140093ED004AD3ED014A03EEA65A85ED005A46
:100424000D1D63EE863A05EBC60543EE663AC5ED4F
:10043400003A22EE013A01EBC40502EEA13A85ED41
:10044400003A0D1D22EE811A05EBC40402EE611A76
:1004540084ED001A60EE041A01EBCA0440EEA41AFB
:10046400C4ED001A0C1D60EE840A04EBCA0440EECD
:10047400640AC4ED000A401E009C1B19761C002867
:1004840002EB091208EBC9080CF1080C7FF46EAFFB
:100494000846BA08B90805294FEA890EC0F0BA809F
:1004A400CDF80410DDF81090ADF800E01146920884
:1004B4000023CB464E46ADF802709A46BDF8027052
:1004C40099ED001AD9ED011A9BED000ADBED010A42
:1004D40096ED002AD6ED012A00EBCA0402EB0A0CC1
:1004E40000EBCC0502EB0C0E95ED004A94ED003ABE
:1004F400D4ED013A051D05EBCC0805EBCE05D8ED8E
:10050400004AD5ED005A00EBCE0833EEE58A98EDAB
:10051400005A02EB0E0800EBC80533EE457A95ED60
:10052400006A051D05EBC80574EE467AD5ED006A30
:1005340034EE064A74EEE68A74EEA64A00EBCC0565
:1005440033EE053A33EE446A33EE043A84ED003A6E
:1005540073EEA53A73EEE46A33EEA43A66EE003A1B
:1005640084ED013A46EEA03AC5ED003A051D26EEAB
:10057400804A05EBCC0506EE604A85ED004A00EBA7
:10058400CE0500F1040C37EE285A25EE013A78EE38
:10059400675A05EEA13A85ED003A65EE813A0CEB17
:1005A400CE0545EE613A37EE687AC5ED003A77EE4E
:1005B400887A27EE024A00EBC80507EEA24A85EDC9
:1005C400004A27EE823A0CEBC8058A4407EE623AE9
:1005D400BA4585ED003A04EBC104FFF47FAFBDF8E2
:1005E40000700BEB071B09EBC7095B1C07EB470407
:1005F400571E9F4206EBC406BFF45FAFBDF8001060
:10060400BDF802704FEA810E01998908052901910C
:10061400BFF448AFB90800BF90ED021A90ED063A56
:1006240090ED000A90ED042AD0ED010AD0ED052AE0
:1006340030EE024A70EE424A31EE030A31EE431ABA
:1006440030EEA22A34EE003AD0ED031AD0ED073A88
:1006540080ED003A70EEE22A71EEA30A32EE203AFF
:1006640034EE400A72EE600A71EEE31A80ED013A4C
:1006740080ED020AC0ED030A34EEA12A32EEC13A3B
:1006840034EEE10A71EE220A80ED042A80ED053A87
:1006940080ED060AC0ED070A2030491EBCD102B025
:1006A400BDEC028B01B0BDE8F08F00002DE9F44FE2
:1006B4002DED048B82B00F46994609EB4901C90020
:1006C400009184460146B0EE403A90461346BE0877
:1006D4005FEA970006EB970401EBC405DCED000A22
:1006E400D5ED001A9CED011A92ED007A92ED010A03
:1006F4000D1D05EBC40A05EBC6059AED002AD5EDE0
:10070400003A01EBC60A30EEA15ADAED002A04EBF6
:10071400970A01EBCA0570EEE10A95ED004A0D1D3A
:1007240005EBCA0572EE845A72EEC41AD5ED004A7E
:1007340075EE252A31EE026A73EEA46ACCED002A26
:1007440031EE421A76EE262A33EEE42ACCED012A63
:1007540070EEC22A71EE213A76EE664A35EE654AAB
:1007640070EE820A31EE611A24EE076A01EBC605C7
:10077400D8ED001A98ED012A93ED005AD3ED015AF1
:1007840004EEC06A85ED006A0D1D64EE874A05EB30
:10079400C60544EE004AC5ED004A22EEA10A01EB6B
:1007A400C40503EEC20A85ED000A0D1D63EEA11A0D
:1007B40005EBC40442EE821AC4ED001A20EE852A29
:1007C40001EBCA0401EE652A84ED002A0C1D21EE1A
:1007D400050A04EBCA0400EEA50A84ED000A401ED3
:1007E400009C1B19761C002802EB091208EBC908AF
:1007F4000CF1080C7FF46EAF0846BA08B908052955
:100804004FEA890EC0F0BA80CDF80410DDF81890D4
:10081400ADF800E0114692080023CB464E46ADF8F1
:1008240002709A46BDF8027099ED001AD9ED011ACA
:100834009BED000ADBED010A96ED002AD6ED012AB4
:1008440000EBCA0402EB0A0C00EBCC0502EB0C0E25
:10085400D5ED005AD4ED003A94ED014A051D05EB9F
:10086400CC0805EBCE0598ED006A95ED005A00EB37
:10087400CE0874EE458AD8ED004A02EB0E0800EB70
:10088400C80573EEE47AD5ED006A051D05EBC805CD
:1008940073EEA43A95ED007A00EBCC0535EEE68ACA
:1008A40036EE479A75EEA64A73EEE46A73EEA43AFE
:1008B400C4ED003A34EE054A36EE075A34EE457A72
:1008C40074EE053A26EE804AC4ED013A07EE604A1A
:1008D40085ED004A051D67EE004A05EBCC0546EEA2
:1008E400A04AC5ED004A00EBCE0500F1040C77EEFA
:1008F400C95A65EE813A38EE886A46EE613AC5ED2A
:10090400003A26EE014A0CEBCE0505EEA14A77EE3D
:10091400897A85ED004A38EEC88A67EE824A00EB90
:10092400C80548EE624AC5ED004A68EE023A0CEB8F
:10093400C8058A4447EEA23ABA45C5ED003A04EB2D
:10094400C104FFF47FAFBDF800700BEB071B09EB8C
:10095400C7095B1C07EB4704571E9F4206EBC406FE
:10096400BFF45FAFBDF80010BDF802704FEA810E0E
:100974000199890805290191BFF448AFB90800BF5E
:1009840090ED000A90ED041AD0ED010A90ED022AD0
:10099400D0ED051AD0ED063A70EE014A30EE415A18
:1009A400D0ED032A90ED074A30EEA11A70EEE15A19
:1009B40032EE230A72EE631A72EE840A32EEC42A0D
:1009C40074EE802A62EE832AC0ED002A71EE202A9A
:1009D40034EEC00A71EE600A62EE832A20EE030A46
:1009E40060EE830AC0ED012A80ED020AC0ED030A1D
:1009F40035EE421A75EEA12A35EE020A75EEE10AC9
:100A040021EE031A62EE832A20EE030A60EE830AC3
:100A140080ED041AC0ED052A80ED060AC0ED070A30
:100A24002030491EACD102B0BDEC048B01B0BDE84E
:100A3400F08F000001808270C3704FF0000C2349D6
:100A440041600188102932D0402926D0B1F5807F39
:100A540019D0B1F5806F0CD0B1F5805F32D101228D
:100A64008281C2814FF06651194A826001616046F9
:100A7400704704228281C2814FF06A51154A826014
:100A840001616046704710228281C2814FF06E512D
:100A9400114A826001616046704740228281C181AF
:100AA4004FF072510D4A82600161604670474FF405
:100AB40080718181C1814FF0765209498160026160
:100AC400604670474FF0FF3C60467047083F00089F
:100AD400083700080E370008263700088637000854
:100AE4000639000830B40346900857D093ED000A45
:100AF400D3ED010A20EE000A00EEA00A0C1DB5EEAB
:100B0400400AF1EE10FA04DBB1EEC00A81ED000AEE
:100B140001E000250D60211D93ED020AD3ED030AC7
:100B240020EE000A00EEA00AB5EE400AF1EE10FA3B
:100B340004DBB1EEC00A84ED000A01E00025256063
:100B44000C1D93ED040AD3ED050A20EE000A00EE15
:100B5400A00AB5EE400AF1EE10FA04DBB1EEC00AC9
:100B640081ED000A02E000250D6000BF93ED060A46
:100B7400D3ED070A20EE000A00EEA00A2033211D5F
:100B8400B5EE400AF1EE10FA04DBB1EEC00A84EDD2
:100B9400000A01E000252560401EA7D112F00300E1
:100BA4004AD0C20716D593ED000AD3ED010A20EE10
:100BB400000A0A4600EEA00A0833091DB5EE400AF1
:100BC400F1EE10FA04DBB1EEC00A82ED000A01E096
:100BD4000024146040082FD093ED001AD3ED010ACD
:100BE40021EE010A00EEA00A0C1DB5EE400AF1EE5A
:100BF40010FA03F1080204DBB1EEC00A81ED000A29
:100C040001E000230B60211D92ED000AD2ED011AD0
:100C140020EE000A01EEA10AB5EE400AF1EE10FA48
:100C240002F1080304DBB1EEC00A84ED000A01E01E
:100C340000222260401ECFD130BC70472DE9F04322
:100C440049088946491C002689B20025A9F10208F1
:100C54003AE0B54238DA00EBC50401EB050C94ED3B
:100C6400000A50F8364040F8354000EBC60484EDE5
:100C7400000A041D04EBC50797ED000A5EF8364030
:100C8400071D01EB060E47F8354007EBC60400EBE1
:100C9400CC0784ED000A50F83E4097ED000A40F876
:100CA4003C4000EBCE07041D04EBCC0487ED000AA6
:100CB400071D94ED000A57F83E70041D44F83C707B
:100CC40004EBCE0484ED000A00EBC5074E4450F853
:100CD400364097ED020ABC6000F1040E00EBC60436
:100CE400AD1C84ED000AADB25EF8364097ED030A00
:100CF400FC60041D04EBC606A84586ED000A1E88A8
:100D040003EB4203A5D2BDE8F0832DE9F04F490877
:100D14004D1C8946074600EBC50696460146984693
:100D2400A9F1020C00202A46002320E083421ED2AF
:100D34003C6851F830503D6041F830400D1D7C68EE
:100D440055F830A0C7F804A045F8304014183568A9
:100D540051F834A0C6F800A041F8345001F1040A57
:100D640075685AF834B0C6F804B04AF834504844A8
:100D7400BC6851F83050BD6041F830400D1DFC682E
:100D840055F830A0C7F80CA045F830409B1CB8F8C3
:100D94000000103610379C4508EB4E08C6D2BDE85B
:100DA400F08F2DE9F04791461A46490801F1010EEA
:100DB4000B46054600EB8E0401464FF0000CA3F1F0
:100DC4000208002010E084450ED22E6851F82070ED
:100DD4002F6041F820600EEB0007266851F827A029
:100DE400C4F800A041F8276018186E6851F8207004
:100DF4006F6041F820600CF1020C1088083408354B
:100E0400E04502EB4902DED2BDE8F08753B94AB9A6
:100E1400002908BF00281CBF4FF0FF314FF0FF30FE
:100E240000F074B9ADF1080C6DE904CE00F006F8D9
:100E3400DDF804E0DDE9022304B070472DE9F04752
:100E4400089D04468E46002B4DD18A42944669D9AA
:100E5400B2FA82F252B101FA02F3C2F1200120FA8D
:100E640001F10CFA02FC41EA030E94404FEA1C48DB
:100E7400210CBEFBF8F61FFA8CF708FB16E341EAD7
:100E8400034306FB07F199420AD91CEB030306F15D
:100E9400FF3080F01F81994240F21C81023E63447E
:100EA4005B1AA4B2B3FBF8F008FB103344EA034422
:100EB40000FB07F7A7420AD91CEB040400F1FF3337
:100EC40080F00A81A74240F207816444023840EA74
:100ED4000640E41B00261DB1D4400023C5E90043AD
:100EE4003146BDE8F0878B4209D9002D00F0EF8030
:100EF4000026C5E9000130463146BDE8F087B3FA63
:100F040083F6002E4AD18B4202D3824200F2F9804A
:100F1400841A61EB030301209E46002DE0D0C5E94D
:100F2400004EDDE702B9FFDEB2FA82F2002A40F099
:100F34009280A1EB0C014FEA1C471FFA8CFE01269C
:100F4400200CB1FBF7F307FB131140EA01410EFB40
:100F540003F0884208D91CEB010103F1FF3802D2E7
:100F6400884200F2CB804346091AA4B2B1FBF7F0E1
:100F740007FB101144EA01440EFB00FEA64508D904
:100F84001CEB040400F1FF3102D2A64500F2BB8041
:100F94000846A4EB0E0440EA03409CE7C6F1200790
:100FA400B34022FA07FC4CEA030C20FA07F401FAD6
:100FB40006F31C43F9404FEA1C4900FA06F3B1FB5F
:100FC400F9F8200C1FFA8CFE09FB181140EA0141C4
:100FD40008FB0EF0884202FA06F20BD91CEB010161
:100FE40008F1FF3A80F08880884240F28580A8F1B9
:100FF40002086144091AA4B2B1FBF9F009FB10110B
:1010040044EA014100FB0EFE8E4508D91CEB0101A8
:1010140000F1FF346CD28E456AD90238614440EA4B
:101024000840A0FB0294A1EB0E01A142C846A646CB
:1010340056D353D05DB1B3EB080261EB0E0101FA54
:1010440007F722FA06F3F1401F43C5E900710026B1
:101054003146BDE8F087C2F12003D8400CFA02FC07
:1010640021FA03F3914001434FEA1C471FFA8CFE17
:10107400B3FBF7F007FB10360B0C43EA064300FB07
:101084000EF69E4204FA02F408D91CEB030300F1A5
:10109400FF382FD29E422DD9023863449B1B89B25C
:1010A400B3FBF7F607FB163341EA034106FB0EF3E5
:1010B4008B4208D91CEB010106F1FF3816D28B4292
:1010C40014D9023E6144C91A46EA004638E72E465E
:1010D400284605E70646E3E61846F8E64B45A9D256
:1010E400B9EB020864EB0C0E0138A3E74646EAE7C5
:1010F400204694E74046D1E7D0467BE7023B614473
:1011040032E7304609E76444023842E7704700BFDB
:1011140008B502F073F902F03FF908BD72B6FEE7B4
:1011240000B595B03022002108A8FFF799F80023F4
:101134000393049305930693079301931F4A116C39
:1011440041F080511164126C02F080520192019AB4
:1011540002931B490A6822F4404242F400420A60A6
:101164000A6802F440420292029A02220892012181
:101174000B9110210C910E920F930823109354237A
:10118400119312920423139308A800F059FE80B916
:101194000F23039302210491002305934FF48052FB
:1011A4000692079303A801F099F820B915B05DF8E9
:1011B40004FBFFF7B3FFFFF7B1FF00BF00380240A5
:1011C4000070004008B501F0FFFCFFF7A9FF00F034
:1011D4000BF800F001F900F023F800F017F900F023
:1011E400A5F9FFF795FFFEE782B0002100910B4BB4
:1011F4001A6B42F080021A631A6B02F080020092AA
:10120400009A01911A6B42F001021A631B6B03F0FE
:1012140001030193019B02B0704700BF00380240F4
:1012240010B58CB00024089409940A940B942022DD
:1012340021466846FFF714F839483A4B03604FF4E7
:1012440080334360846001230361037680F8204087
:10125400C462354A8262C4600322C26180F83030BD
:10126400436100F0B3FA002845D1012308930993A0
:1012740006230A9308A92A4800F00EFC00283DD151
:1012840002230893099308A9254800F005FC0028C7
:1012940037D103230893099308A9214800F0FCFBE4
:1012A400002831D1012300930193032304930023E5
:1012B40002934FF4801207924FF4102206928DF895
:1012C40015308DF8143003936946154800F0B0FCCE
:1012D400E8B90223009301936946114800F0A8FC81
:1012E400C0B903230093019369460D4800F0A0FCA4
:1012F40098B90CB010BDFFF711FFB6E7FFF70EFF6A
:10130400BEE7FFF70BFFC4E7FFF708FFCAE7FFF7E5
:1013140005FFDEE7FFF702FFE3E7FFF7FFFEE8E77D
:1013240028000020002001400100000F30B589B0E2
:10133400002303930493059306930793026803F130
:10134400804303F590339A4201D009B030BD04467E
:101354000025019503F58C335A6C42F480725A646B
:101364005A6C02F480720192019A02951A6B42F04F
:1013740001021A631B6B03F001030293029B0E2309
:1013840003930323049303A9104801F057F810486A
:10139400104B036045608560C5604FF48063036152
:1013A4004FF4805343614FF4804383614FF480735F
:1013B400C3610562456201F0A1F918B9044BA36346
:1013C4009C63C2E7FFF7AAFEF8E700BF00000240F3
:1013D400700000201064024000B583B00021019128
:1013E400094B1A6B42F480021A631B6B03F48003EB
:1013F4000193019B0A46382001F066FB382001F076
:101404009BFB03B05DF804FB0038024000B587B0D5
:1014140000230293039304930593009301931548C7
:10142400154A02601522426083606422C26003612F
:10143400836101F0F7FC98B94FF48053029302A939
:101444000C4801F0F4FD70B92023009300230193AC
:101454006946084801F0F2FE40B907B05DF804FBA4
:10146400FFF75CFEE8E7FFF759FEEDE7FFF756FEEE
:10147400F3E700BF180100200008004082B00368B1
:10148400104A934204D0104A93420ED002B07047DF
:10149400002300930D4B5A6C42F001025A645B6CBA
:1014A40003F001030093009BF0E700230193074B33
:1014B4001A6C42F004021A641B6C03F004030193D7
:1014C400019BE3E7000001400008004000380240AF
:1014D40000B587B00023019302930393049305930B
:1014E40002680F4B9A4202D007B05DF804FB002358
:1014F40000930C4B1A6B42F001021A631B6B03F04E
:1015040001030093009B4FF4E063019302230293D1
:101514000123059301A9044800F090FFE4E700BF0C
:1015240000000140003802400000024010B596B0AF
:1015340000241294139414941594109411940994FF
:101544000A940B940C940D940E940F94202221462B
:1015540001A8FEF785FE3648364B036053234360EB
:10156400846044F61F63C36004614461846101F0D4
:1015740059FC002844D14FF48053129312A92C48EB
:1015840001F055FD00283ED1294801F077FC0028E0
:101594003CD100231093119310A9254801F04EFE6D
:1015A400002836D16023099300220A920B920C92F0
:1015B4000D920E920F9209A91D4801F0BDFC58BB73
:1015C400042209A91A4801F0B7FC40BB082209A962
:1015D400174801F0B1FC28BB002301930293039345
:1015E400049305934FF400520692089301A91048FE
:1015F40001F062FEC8B90E48FFF76AFF16B010BDCD
:10160400FFF78CFDB7E7FFF789FDBDE7FFF786FD20
:10161400BFE7FFF783FDC5E7FFF780FDD0E7FFF7DE
:101624007DFDD3E7FFF77AFDD6E7FFF777FDE2E725
:10163400D000002000000140FEE7FEE7FEE7FEE7E1
:10164400FEE770477047704708B501F0D7FA08BD48
:1016540008B5024801F038F908BD00BF7000002049
:1016640082B0002100910B4B5A6C42F480425A64C0
:101674005A6C02F480420092009A01911A6C42F072
:1016840080521A641B6C03F080530193019B02B0D7
:10169400704700BF003802404A4B5A6822F4403277
:1016A4005A605A6841680A435A600268536823F4CE
:1016B4008073536002685368016943EA01235360ED
:1016C4000268536823F0407353600268536881686A
:1016D4000B4353600268936823F4006393600268C9
:1016E4009368C1680B439360826A374B9A4257D020
:1016F4000268936823F07063936002689368816A58
:101704000B4393600268936823F04053936002682C
:101714009368C16A0B4393600268936823F00203E1
:10172400936002689368017E43EA4103936090F8F2
:101734002030002B3FD00268536843F400635360A9
:101744000268536823F46043536001684B68426A3B
:10175400013A43EA42334B600268D36A23F47003CC
:10176400D3620168CB6AC269013A43EA0253CB628D
:101774000268936823F4007393600268936890F896
:10178400301043EA412393600268936823F4806332
:10179400936002689368416943EA812393607047C8
:1017A4000268936823F0706393600268936823F07F
:1017B40040539360B0E70268536823F400635360B6
:1017C400CAE700BF002301400100000F38B310B581
:1017D4000446036C43B1236C13F0100F0BD00120AB
:1017E400002384F83C3010BDFFF7A0FD00236364A0
:1017F40084F83C30EFE7236C23F4885323F002038E
:1018040043F0020323642046FFF746FF0020606490
:10181400236C23F0030343F001032364E0E7012076
:101824007047000010B582B013460022019290F870
:101834003C20012A00F094800446012280F83C20D8
:101844000268906810F0010F13D1906840F0010015
:101854009060464A1068464AA2FB0020800C00EBC8
:101864004000019002E0019801380190019800289D
:10187400F9D12268906810F4807F03D0906820F436
:10188400807090602268906810F0010F5DD0206C29
:1018940020F4E06020F0010040F48070206452687D
:1018A40012F4806F05D0226C22F4405242F480522C
:1018B4002264226C12F4805F34D0626C22F006023F
:1018C4006264002284F83C20A26B2A48D063A26B95
:1018D40029481064A26B2948D06422686FF0220062
:1018E40010602068426842F080624260206882682A
:1018F40042F48072826020680A4600F14C01A06BB9
:1019040000F062FF1E4B5B6813F01F0F0DD12368BC
:101914009A6812F0405F25D19A6842F080429A603A
:1019240000201BE000226264CBE72368154A93423F
:1019340001D0002012E09A6812F0405F14D19A6836
:1019440042F080429A60002008E0236C43F01003C8
:101954002364636C43F001036364002002B010BD90
:101964000220FBE70020F9E70020F7E70800002049
:1019740083DE1B43291A0008071A0008131A0008FB
:10198400002301400020014090F83C30012B35D069
:1019940010B50446012380F83C300268936823F0B4
:1019A4000103936003689A6812F0010F21D19A68C9
:1019B40022F480729A60806B90F83530DBB2022B8F
:1019C4000ED000202268536823F080635360236C98
:1019D40023F4885323F0010343F00103236409E053
:1019E40000F027FF0028EDD0236C43F0400323646C
:1019F400E8E70020002384F83C3010BD0220704743
:101A0400704708B5806B01F03BFE08BD704708B510
:101A1400806B40230364436C43F004034364FFF787
:101A2400F5FF08BD08B50346806B026C12F0500F39
:101A340025D1036C43F40073036403689A6812F0BD
:101A4400405F19D1027EBAB9DA6A12F4700F03D07A
:101A54009A6812F4806F0FD15A6822F020025A60FB
:101A6400036C23F480730364036C13F4805F03D169
:101A7400036C43F001030364FFF7C2FF08BD026C6B
:101A840012F0100F04D1826BD26C18469047F5E720
:101A9400FFF7BCFFF2E7000030B482B000230193EB
:101AA40090F83C30012B00F0BB80012380F83C30DF
:101AB4000B68092B41D90468E2689BB203EB43032A
:101AC4001E3B4FF0070C0CFA03F322EA0303E36016
:101AD4000468E2680B8803EB43031E3B8D6805FA38
:101AE40003F31343E3604B68062B3DD80468626B31
:101AF40003EB8303053B4FF01F0C0CFA03F322EABC
:101B0400030363630468626B4B6803EB8303053B65
:101B1400B1F800C00CFA03F3134363630268414B4A
:101B24009A4251D002683F4B9A4256D0002380F823
:101B34003C30184602B030BC7047046822699BB23E
:101B440003EB43034FF0070C0CFA03F322EA0303FD
:101B54002361046822690B8803EB43038D6805FA4B
:101B640003F313432361BEE70C2B16D805682A6BD5
:101B740003EB8303233B1F2404FA03F322EA030346
:101B84002B6305682A6B4B6803EB8303233B0C88A8
:101B940004FA03F313432B63C0E70568EA6A03EB13
:101BA4008303413B1F2404FA03F322EA0303EB6299
:101BB4000568EA6A4B6803EB8303413B0C8804FA2B
:101BC40003F31343EB62A9E70B68122BAAD1164A5D
:101BD400536843F480035360A4E70B68103B012B64
:101BE400A4D8114A536843F4000353600B68102BC4
:101BF4009CD10E4B1B6802F1467202F52E3202F2A2
:101C04008332A2FB03239B0C03EB83035B0001934E
:101C140002E0019B013B0193019B002BF9D185E775
:101C2400022087E700200140002301400800002033
:101C340090F83C30012B00F0FB8030B4012380F895
:101C44003C300B68092B7FD90568EA689BB203EB2B
:101C540043031E3B072404FA03F322EA0303EB6065
:101C64000568EA688C680B8803EB43031E3B04FA9F
:101C740003F31343EB600268936B23F44013936301
:101C84000468A36B0A69013A43EA0253A363046834
:101C9400A26B4B680D695B1BDBB20333DBB203EB56
:101CA40083034FF01F0C0CFA03F322EA0303A3632C
:101CB4000468A26B4B680D695B1BDBB20333DBB2B8
:101CC40003EB8303B1F800C00CFA03F31343A363DB
:101CD4008A69584B9A424DD00268936823F4702362
:101CE4009360026893688C692343936002689368E5
:101CF40023F44013936002689368CC692343936090
:101D04004B7D002B41D00268536843F480635360D9
:101D14000B7D002B3FD00268536843F4805353601B
:101D24004B68022B57D0032B62D0012B39D00268A9
:101D3400136A23F47F6323F00F0313620268136AA8
:101D4400CC682343136238E005682A699BB203EB2D
:101D54004303072404FA03F322EA03032B6105680F
:101D64002A698C680B8803EB430304FA03F31343D7
:101D74002B6180E70268936823F470239360026800
:101D8400936823F440139360BAE70268536823F41A
:101D940080635360BCE70268536823F48053536044
:101DA400BEE70268536923F47F6323F00F03536192
:101DB40002685369CC682343536102681E4B9A42FC
:101DC40023D002681C4B9A4228D0002380F83C3070
:101DD400184630BC70470268936923F47F6323F08C
:101DE4000F03936102689369CC6823439361E4E72A
:101DF4000268D36923F47F6323F00F03D36102687D
:101E0400D369CC682343D361D7E70B68122BD8D1AD
:101E14000A4A536843F480035360D2E70B68103BCB
:101E2400012BD2D8054A536843F400035360CCE72E
:101E34000220704701000F000020014000230140F0
:101E4400002800F0E08170B582B00446036813F006
:101E5400010F3BD09F4B9B6803F00C03042B2CD049
:101E64009C4B9B6803F00C03082B21D06368B3F5EB
:101E7400803F4FD0B3F5A02F52D0964B1A6822F46E
:101E840080321A601A6822F480221A606368002B78
:101E940050D000F0BFFE05468E4B1B6813F4003F84
:101EA40014D100F0B7FE401B6428F5D90320B1E13A
:101EB400884B5B6813F4800FD8D0864B1B6813F4EF
:101EC400003F03D06368002B00F09F81236813F068
:101ED400020F54D07F4B9B6813F00C0F3ED07D4B08
:101EE4009B6803F00C03082B33D0E368002B68D005
:101EF400794B01221A6000F08DFE0546754B1B6874
:101F040013F0020F54D100F085FE401B0228F5D9CE
:101F140003207FE16F4A136843F480331360B5E70D
:101F24006C4B1A6842F480221A601A6842F48032B8
:101F34001A60ABE700F06EFE0546664B1B6813F4AF
:101F4400003FC3D000F066FE401B6428F5D903208F
:101F540060E1604B5B6813F4800FC6D15D4B1B6876
:101F640013F0020F03D0E368012B40F05081594A6B
:101F7400136823F0F803216943EAC103136023685B
:101F840013F0080F42D063696BB3534B0122C3F8BB
:101F9400802E00F03FFE05464E4B5B6F13F0020FA0
:101FA40034D100F037FE401B0228F5D9032031E17B
:101FB400484A136823F0F803216943EAC103136014
:101FC400DDE7454B00221A6000F024FE0546414B34
:101FD4001B6813F0020FD2D000F01CFE401B022835
:101FE400F5D9032016E13C4B0022C3F8802E00F003
:101FF40011FE0546374B5B6F13F0020F06D000F05D
:1020040009FE401B0228F5D9032003E1236813F0DD
:10201400040F77D02F4B1B6C13F0805F33D1002358
:1020240001932C4B1A6C42F080521A641B6C03F01F
:1020340080530193019B0125284B1B6813F4807F77
:1020440023D0A368012B34D0052B38D0214B1A6F31
:1020540022F001021A671A6F22F004021A67A368B9
:10206400002B3DD000F0D6FD06461A4B1B6F13F033
:10207400020F46D100F0CEFD801B41F28833984216
:10208400F3D90320C6E00025D6E7144A136843F4C5
:102094008073136000F0BEFD0646104B1B6813F4FA
:1020A400807FCED100F0B6FD801B0228F5D9032035
:1020B400B0E0084A136F43F001031367CFE7054B01
:1020C4001A6F42F004021A671A6F42F001021A678B
:1020D400C5E700BF003802400000474200700040DE
:1020E40000F098FD0646524B1B6F13F0020F08D008
:1020F40000F090FD801B41F288339842F3D903200D
:1021040088E0EDB9A369002B00F08380484A926807
:1021140002F00C02082A51D0022B17D0454B0022A2
:102124001A6600F077FD0446414B1B6813F0007FEC
:1021340042D000F06FFD001B0228F5D9032069E0AE
:102144003B4A136C23F080531364DBE7394B0022C2
:102154001A6600F05FFD0546354B1B6813F0007FDF
:1021640006D000F057FD401B0228F5D9032051E0AA
:10217400E369226A1343626A43EA8213A26A520839
:10218400013A43EA0243E26A43EA0263284A53609B
:10219400284B01221A6600F03DFD0446244B1B68BF
:1021A40013F0007F06D100F035FD001B0228F5D99D
:1021B40003202FE000202DE000202BE0012B2BD06A
:1021C4001B4B5B6803F48001E269914226D103F062
:1021D4003F02216A8A4223D1616A47F6C0721A40DB
:1021E400B2EB811F1ED103F44031A26A5208013AB6
:1021F400B1EB024F18D103F07063E26AB3EB026FE4
:1022040014D1002006E001207047012002E00120E3
:1022140000E0002002B070BD0120FBE70120F9E7D7
:102224000120F7E70120F5E70120F3E70120F1E7BA
:10223400003802400000474208B5254B9B6803F074
:102244000C03042B3FD0082B3FD1214B5A6802F0DA
:102254003F025B6813F4800F12D01D4B5968C1F321
:1022640088111C480023A1FB0001FEF7CFFD184B89
:102274005B68C3F3014301335B00B0FBF3F025E07B
:10228400134B5968C1F3881C4FEA4C11B1EB0C0095
:102294006EEB0E0E4FEA8E1343EA90638101091A26
:1022A40063EB0E03DB0043EA5173C90011EB0C0C22
:1022B40043F10003990200234FEA8C2041EA9C5128
:1022C400FEF7A4FDD3E7034800E0034808BD00BFC0
:1022D4000038024040787D010024F400002800F01A
:1022E4009B8070B50D4604464F4B1B6803F00703F3
:1022F4008B4208D2CBB24C4A1370136803F0070325
:102304008B4240F08B80236813F0020F17D013F038
:10231400040F04D0454A936843F4E0539360236860
:1023240013F0080F04D0414A936843F46043936068
:102334003E4A936823F0F003A1680B43936023683B
:1023440013F0010F32D06368012B21D09A1E012AA9
:1023540025D9364A126812F0020F61D033498A68CF
:1023640022F0030213438B6000F054FC06462F4B0B
:102374009B6803F00C036268B3EB820F16D000F085
:1023840049FC801B41F288339842F0D9032042E093
:10239400264A126812F4003FE0D101203BE0234AB0
:1023A400126812F0007FD9D1012034E01E4B1B6863
:1023B40003F00703AB4207D9EAB21B4B1A701B6840
:1023C40003F00703AB422DD1236813F0040F06D0AA
:1023D400164A936823F4E053E1680B43936023683F
:1023E40013F0080F07D0114A936823F4604321695E
:1023F40043EAC1039360FFF71FFF0C4B9B68C3F3D1
:1024040003130B4AD35CD8400A4B18600A4B186874
:1024140000F0B4FB002070BD012070470120FAE7F2
:102424000120F8E70120F6E7003C024000380240B2
:1024340010BF0008080000200400002000230F2B18
:1024440000F2D28070B582B060E085685E0003243B
:10245400B44025EA0405CC68B4402C438460456844
:1024640025EA02054C68C4F300129A402A434260EC
:102474005AE0DC08083450F8246003F007029500A1
:102484000F22AA4026EA020E0A69AA4042EA0E0274
:1024940040F824205CE0042200E0002202FA0EF25C
:1024A4002A430234514D45F82420514A94686FEA76
:1024B4000C0224EA0C054E6816F4801F01D04CEA85
:1024C40004054B4CA560E46802EA04054E6816F462
:1024D400001F01D04CEA0405454CE560646802EA3B
:1024E40004054E6816F4003F01D04CEA0405404C44
:1024F4006560246822404D6815F4803F01D04CEAA1
:1025040004023B4C226001330F2B6BD801229A400A
:102514000C6804EA020C32EA0404F4D14C6804F0B6
:102524000304013C012C90D94A6802F00302032AF7
:1025340009D0C4685D000322AA4024EA02048A6820
:10254400AA402243C2604A6802F00302022A90D0E1
:1025540004684FEA430E032202FA0EF224EA02044C
:102564004A6802F0030202FA0EF2224302604A6849
:1025740012F4403FC7D0002201921E4A546C44F426
:1025840080445464526C02F480420192019A9C0883
:10259400A51C164A52F8255003F003024FEA820E96
:1025A4000F2202FA0EF225EA0205134A90423FF482
:1025B40074AF02F5806290420ED002F580629042C0
:1025C4000CD002F5806290420AD002F580629042FB
:1025D4003FF461AF072261E701225FE702225DE772
:1025E40003225BE702B070BD704700BF00380140B2
:1025F400003C0140003802400000024030B405684D
:102604002C6824F480242C60046863608368402B65
:1026140005D0036899600368DA6030BC70470368CA
:102624009A600368D960F8E710B40368D9B2103926
:102634000C4AA2FB014212090B4CA25CC2655F2941
:1026440009D923F47F7323F0030304338365806D76
:102654005DF8044B704723F47F7323F00303836511
:10266400F5E700BFABAAAAAA08BF0008836A82697B
:1026740092B9012B0AD0022B02D00BB10020704773
:10268400C36A13F0807F28D100207047C36AB3F176
:10269400C07F24D000207047B2F5005F09D0022B20
:1026A40025D9032B25D1C36A13F0807F23D10020C1
:1026B4007047032B03D8DFE803F01404140A002046
:1026C4007047C36A13F0807F0DD100207047C36A3E
:1026D400B3F1C07F09D0002070470120704701206A
:1026E4007047012070470120704701207047012086
:1026F40070470020704701207047000070B5044601
:1027040000F088FA002C5BD00546022384F83530AB
:10271400002384F834302268136823F00103136023
:1027240023681A6812F0010F0AD000F073FA431BF1
:10273400052BF5D920236365032084F8350070BD8B
:102744001A68204810406168A2680A43E1680A4395
:1027540021690A4361690A43A1690A43E1690A4399
:10276400216A0A430243616A04291ED01A6026685A
:10277400756925F00705636A1D43042B07D1A36A15
:102784001D43E36A1BB12046FFF770FF90B97561E2
:102794002046FFF749FFE26D3F239340836000200A
:1027A4006065012384F83530C9E7E16A206B014391
:1027B4000A43DBE740236365012084F83500BEE764
:1027C4000120BCE73F8010F038B50446856D90F8D1
:1027D400340001282BD0012084F8340094F835000B
:1027E400C0B2012804D0002384F83430022038BD5C
:1027F400022084F83500002060652046FFF7FEFEC5
:10280400E26D3F239340AB602268136843F01603E4
:102814001360236C23B12268136843F00803136028
:102824002268136843F0010313600020DFE70220ED
:10283400DDE770B50446866D00F0ECF994F83530A8
:10284400DBB2022B06D080236365002384F8343086
:10285400012070BD05462268136823F01603136037
:102864002268536923F080035361236CE3B1226827
:10287400136823F0080313602268136823F001032C
:10288400136023681B6813F0010F11D000F0C2F924
:10289400431B052BF5D920236365032084F83500F9
:1028A400002384F83430D4E7A36C002BDFD1E3E7B2
:1028B400E26D3F239340B360012384F83530002058
:1028C40084F83400C5E70000F0B583B00446002363
:1028D4000193724B1D68724BA3FB0535AD0A876DDE
:1028E4003E68C26D08239340334210D003681A68CF
:1028F40012F0040F0BD01A6822F004021A60C26DA1
:1029040008239340BB60436D43F001034365E26DCC
:1029140001239340334209D02268526912F0800F98
:1029240004D0BB60636D43F002036365E26D04236E
:102934009340334209D02268126812F0020F04D087
:10294400BB60636D43F004036365E26D1023934041
:10295400334224D02268126812F0080F1FD0BB60E3
:1029640023681A6812F4802F0DD01B6813F4002F0B
:1029740004D1236C9BB12046984710E0A36C73B13B
:10298400204698470BE01A6812F4807F03D11A6836
:1029940022F008021A60236C0BB120469847E26DBE
:1029A40020239340334255D02268126812F0100F4E
:1029B40050D0BB6094F83530DBB2052B0ED02368C1
:1029C4001A6812F4802F33D01B6813F4002F2AD115
:1029D400636C002B3ED0204698473BE02268136886
:1029E40023F0160313602268536923F080035361B4
:1029F400236CA3B12268136823F008031360E26D0B
:102A04003F239340BB60012384F83530002384F8CE
:102A14003430236D002B3FD0204698473CE0A36C14
:102A2400002BE7D1EBE7E36BA3B12046984711E015
:102A34001A6812F4807F09D11A6822F010021A6011
:102A4400012384F83530002384F83430E36B0BB170
:102A540020469847636DFBB1636D13F0010F17D0E7
:102A6400052384F835302268136823F001031360CA
:102A7400019B01330193AB4204D823681B6813F014
:102A8400010FF5D1012384F83530002384F8343064
:102A9400E36C0BB12046984703B0F0BD080000205A
:102AA400B5814E1B074AD36823F4E0631B041B0C57
:102AB400000200F4E060034343F0BF6343F40033D7
:102AC400D360704700ED00E000B5194BDB68C3F339
:102AD4000223C3F1070CBCF1040F28BF4FF0040C10
:102AE40003F1040EBEF1060F18D9033B4FF0FF3E6D
:102AF4000EFA0CFC21EA0C0199400EFA03F322EAC7
:102B04000303194300280BDB0901C9B200F160403B
:102B140000F5614080F800135DF804FB0023E5E74D
:102B240000F00F000901C9B2024B1954F4E700BFC9
:102B340000ED00E014ED00E0002807DB00F01F02C8
:102B4400400901239340024A42F82030704700BFF5
:102B540000E100E00138B0F1807F0BD24FF0E023B8
:102B64005861054AF02182F8231000209861072259
:102B74001A6170470120704700ED00E010B504466B
:102B84000E4B18784FF47A73B3FBF0F30C4A1068C9
:102B9400B0FBF3F0FFF7DEFF68B90F2C01D9012079
:102BA4000AE0002221464FF0FF30FFF78DFF054B6E
:102BB4001C60002000E0012010BD00BF00000020C8
:102BC400080000200400002008B50B4B1A6842F4EA
:102BD40000721A601A6842F480621A601A6842F439
:102BE40080721A600320FFF75DFF0F20FFF7C6FF16
:102BF400FEF736FD002008BD003C0240034A116880
:102C0400034B1B780B441360704700BF6001002026
:102C140000000020014B1868704700BF60010020CD
:102C240070B4036A23F001030362036A466882698D
:102C340022F073020C6844EA020523F002028B6856
:102C440013430D4CA04209D00B4CA0420DD046605A
:102C540085614A684263036270BC704723F00803CD
:102C6400CA68134323F00403EEE726F440764A6966
:102C740032438E691643EAE70000014030B4036A28
:102C840023F480730362036A4568C26922F0730205
:102C94000C68224323F400738C6843EA04230F4C2A
:102CA400A04209D00D4CA0420ED04560C2614A68D2
:102CB400C263036230BC704723F40063CC6843EA08
:102CC400042323F48063EDE725F440554C6945EA79
:102CD40004158C6945EA0415E7E700BF00000140CC
:102CE40030B4036A23F480530362036A4468C269FC
:102CF40022F4E6420D6842EA052223F400538D686B
:102D040043EA0533074DA84206D04460C2614A68CD
:102D14000264036230BC704724F480444D6944EA81
:102D24008514F2E70000014010B4036A046A24F039
:102D340001040462846924F0F00C4CEA021223F0CA
:102D44000A030B43826103625DF8044B704710B4BD
:102D5400046A24F0100404628469036A24F4704C45
:102D64004CEA023223F0A00343EA011382610362B6
:102D74005DF8044B7047836823F070030B4343F002
:102D840007038360704770470368254A90420ED05A
:102D9400B0F1804F0BD0A2F57C42904207D002F5EF
:102DA4008062904203D002F58062904203D123F006
:102DB40070034A6813431A4A90421AD0B0F1804F04
:102DC40017D0A2F57C42904213D002F58062904263
:102DD4000FD002F5806290420BD002F59A329042F5
:102DE40007D002F58062904203D002F580629042DF
:102DF40003D123F44073CA68134323F080034A6960
:102E0400134303608B68C3620B688362044B98426C
:102E140002D00123436170470B690363F9E700BFE4
:102E24000000014040B310B5044690F83D30F3B1C2
:102E3400022384F83D30214651F8040BFFF7A4FF28
:102E4400012384F8463084F83E3084F83F3084F817
:102E5400403084F8413084F8423084F8433084F8B8
:102E6400443084F8453084F83D30002010BD80F8AB
:102E74003C30FEF703FBDBE70120704740B310B59D
:102E8400044690F83D30F3B1022384F83D302146E6
:102E940051F8040BFFF778FF012384F8463084F8D7
:102EA4003E3084F83F3084F8403084F8413084F870
:102EB400423084F8433084F8443084F8453084F850
:102EC4003D30002010BD80F83C30FFF75CFFDBE7AD
:102ED4000120704730B4036A23F010030362036ACD
:102EE4004468826922F4E6420D6842EA052223F02E
:102EF40020038D6843EA05130E4DA84209D00D4DF9
:102F0400A8420ED0446082614A688263036230BC86
:102F1400704723F08003CD6843EA051323F0400390
:102F2400EDE724F440644D6944EA85048D6944EA7C
:102F34008504E7E70000014038B590F83C30012BE8
:102F440066D004460D46012380F83C300C2A5AD83A
:102F5400DFE802F0075959591B5959593059595941
:102F640044000068FFF75CFE2268936943F008039D
:102F740093612268936923F004039361226893693F
:102F840029690B43936100203EE00068FFF7A2FF2C
:102F94002268936943F4006393612268936923F47C
:102FA4008063936122689369296943EA01239361E9
:102FB400002029E00068FFF761FE2268D36943F02E
:102FC4000803D3612268D36923F00403D361226820
:102FD400D36929690B43D361002015E00068FFF72A
:102FE4007FFE2268D36943F40063D3612268D36906
:102FF40023F48063D3612268D369296943EA0123F6
:10300400D361002000E00120002384F83C3038BD67
:103014000220FCE710B4846824F47F4C42EA0322C3
:103024000A4342EA0C0282605DF8044B704790F850
:103034003C30012B78D010B50446012380F83C3095
:10304400022380F83D300268936823F47F4323F021
:10305400770393600B68602B4CD029D8402B54D055
:103064000CD9502B22D1CA6849680068FFF75CFE6E
:1030740050212068FFF77FFE002005E0202B0DD0B3
:1030840009D9302B0AD00120012384F83D300023D4
:1030940084F83C3010BD0BB1102B05D119462068C3
:1030A400FFF769FE0020EFE70120EDE70120EBE7E1
:1030B400B3F5805F34D0B3F5005F0CD1CB684A68B8
:1030C40089680068FFF7A6FF2268936843F4804389
:1030D40093600020D8E7702B24D1CB684A688968B4
:1030E4000068FFF797FF2268936843F077039360C3
:1030F4000020C9E7CA6849680068FFF728FE602114
:103104002068FFF738FE0020BEE7CA6849680068F7
:10311400FFF70AFE40212068FFF72DFE0020B3E7E9
:103124000020B1E70120AFE70220704701F01F0142
:10313400012303FA01FC036A23EA0C030362036A12
:1031440002FA01F10B4303627047000010B5044614
:103154000846002932D194F83E30DBB2013B18BF57
:103164000123002B63D1002841D1022384F83E308F
:10317400012201462068FFF7D9FF23682E4A9342B3
:1031840045D023682C4A934246D0B3F1804F43D0B4
:10319400A2F57C4293423FD002F5806293423BD039
:1031A40002F58062934237D002F59A32934233D0CB
:1031B4001A6842F001021A60002037E0042908D09E
:1031C40008290DD094F84130DBB2013B18BF01232C
:1031D400C7E794F83F30DBB2013B18BF0123C0E7D7
:1031E40094F84030DBB2013B18BF0123B9E704284F
:1031F40005D0082807D0022384F84130B8E7022319
:1032040084F83F30B4E7022384F84030B0E75A6CC6
:1032140042F400425A64B4E79A6802F00702062AAC
:1032240007D01A6842F001021A60002010BD012084
:10323400FCE70020FAE700BF0000014090F83C30B2
:10324400012B35D010B4012380F83C30022380F8E0
:103254003D3003685A689C6822F0700C0A6842EAA0
:103264000C025A600368134A934212D0B3F1804FA0
:103274000FD0A2F57C4293420BD002F580629342B8
:1032840007D002F58062934203D002F59A3293424A
:1032940004D124F080044A6814439C60012380F81C
:1032A4003D30002380F83C3018465DF8044B7047ED
:1032B400022070470000014090F83C30012B22D0DE
:1032C400012380F83C30CB6823F440738A681343AD
:1032D40023F480634A68134323F400630A681343A6
:1032E40023F480530A69134323F400534A691343B4
:1032F40023F48043CA69134302685364002380F8AB
:103304003C3018467047022070470000034AD2F848
:10331400883043F47003C2F88830704700ED00E051
:1033240007EE902AB8EEE77ADFED176AB4EEE67A94
:10333400F1EE10FA07DAB5EEC07AF1EE10FA04D81D
:10334400DFED127A01E0DFED127AF8EEE77A9FED15
:10335400117A67EE877AFCEEE77A17EE903A9BB221
:1033640003F5FA739BB211B90268536370470429D9
:1033740004D0082905D00268136470470268936377
:1033840070470268D36370470000344300000000B4
:10339400B4000000E438DE4210B50E4C0021204693
:1033A400FFF7D4FE04212046FFF7D0FE0821204673
:1033B400FFF7CCFE5A2200212046FFF7B1FF5A2224
:1033C40004212046FFF7ACFF5A2208212046FFF7CC
:1033D400A7FF10BDD0000020074B03604FF44073DB
:1033E4008380002304E09A1C002140F8221001335A
:1033F400B3F5407FF7DB70472800002010B5054C7B
:103404002046FFF7E9FF214651F8080BA288FEF792
:1034140009FA10BD640100200048704764010020CF
:103424002DE9F04FBDF82890DDF82C80BDF830A0D0
:10343400002635463446B64607E0BCF1010F27D0D6
:10344400BCF1020F3CD00EF1010E71454EDDDFF8E8
:10345400A4C08CFB0E7CACEBEE7C0CEB4C0CBEEBFA
:103464000C0CEAD1A34241DD04F1010C02EB840B04
:1034740050F82E7007EE907AF8EE677ACBED007A6A
:1034840002EB8C0C0234DFED1A7ACCED007ADAE729
:10349400A9452BDD05F1010C099F07EB850B50F8BD
:1034A4002E7007EE907AF8EE677ACBED007A099FDA
:1034B40007EB8C0C02354FF0000BCCF800B0C2E7E0
:1034C400B24513DD06F1010C08EB860B50F82E70A3
:1034D40007EE907AF8EE677ACBED007A08EB8C0C65
:1034E40002364FF0000BCCF800B0ACE7BDE8F08F2B
:1034F400000000005655555500F61C420023136089
:1035040000F5C152936100F5005202F254410B6080
:10351400B2F85A342AE003F2062200EB820292ED5A
:10352400017A00F61C42D2ED007A77EE877AC2ED7A
:10353400007A03F20E5200EB820292ED007A00F55B
:10354400C152D2ED067A77EE877AC2ED067A03F697
:10355400140200EB820292ED017A00F51152D2EDD1
:10356400057A77EE877AC2ED057A013300F50052C9
:10357400B2F858249A42CEDA704710B50446FFF7E1
:103584004BFF20604FF400732383A4F8343C04F50C
:103594008052A2F850384FF480736383A4F8363C09
:1035A400A2F8523804F500546E23A4F85A347A234E
:1035B400A4F8583410BD00002DE9F04784B02E4C17
:1035C4002046FFF7DAFF206804F11C07818804F520
:1035D4008053B3F850380393284D0295B4F8343C23
:1035E400019304F638460096238B3A460830FFF7D9
:1035F40017FF04F1040A012300224FF4807150469E
:10360400FDF718FA04F54269012300224FF4807192
:103614004846FDF70FFAA5F11808012300224FF4DC
:1036240080714046FDF706FA39465046FCF76AFEBB
:1036340031464846FCF766FE29464046FCF762FEE2
:103644004FF4807204F61C013846FDF74BFA4FF430
:103654008072A5F21C413046FDF744FA4FF48072A3
:1036640005F500612846FDF73DFA2046FFF744FFC3
:1036740004B0BDE8F08700BF6C0D0020C025002019
:1036840008B50448FEF780F9FFF796FFFFF7B6FE8A
:1036940008BD00BF28000020DFF834D00D480E49D3
:1036A4000E4A002302E0D458C4500433C4188C4298
:1036B400F9D30B4A0B4C002301E013600432A242FD
:1036C400FBD3FFF723FEFCF7A7FDFDF77BFD704757
:1036D40000000120000000200C00002030BF000882
:1036E4000C000020C8310020FEE70000F8B500BF40
:1036F400F8BC08BC9E467047F8B500BFF8BC08BCCF
:043704009E46704726
:103708000004000200060001000500030007800015
:1037180080048002800680018005800380074000C5
:103728004004400240064001400540034007C000F5
:10373800C004C002C006C001C005C003C007200005
:103748002004200220062001200520032007A000D5
:10375800A004A002A006A001A005A003A007600085
:103768006004600260066001600560036007E000B5
:10377800E004E002E006E001E005E003E0071000F5
:103788001004100210061001100510031007900015
:1037980090049002900690019005900390075000C5
:1037A8005004500250065001500550035007D000F5
:1037B800D004D002D006D001D005D003D007300005
:1037C8003004300230063001300530033007B000D5
:1037D800B004B002B006B001B005B003B007700085
:1037E8007004700270067001700570037007F000B5
:1037F800F004F002F006F001F005F003F00708000D
:1038080008040802080608010805080308078800D4
:103818008804880288068801880588038807480084
:103828004804480248064801480548034807C800B4
:10383800C804C802C806C801C805C803C8072800C4
:103848002804280228062801280528032807A80094
:10385800A804A802A806A801A805A803A807680044
:103868006804680268066801680568036807E80074
:10387800E804E802E806E801E805E803E8071800B4
:1038880018041802180618011805180318079800D4
:103898009804980298069801980598039807580084
:1038A8005804580258065801580558035807D800B4
:1038B800D804D802D806D801D805D803D8073800C4
:1038C8003804380238063801380538033807B80094
:1038D800B804B802B806B801B805B803B807780044
:1038E8007804780278067801780578037807F80074
:1038F800F804F802F806F801F805F803F8070400D8
:1039080004040402040604010405040304078400F3
:1039180084048402840684018405840384074400A3
:103928004404440244064401440544034407C400D3
:10393800C404C402C406C401C405C403C4072400E3
:103948002404240224062401240524032407A400B3
:10395800A404A402A406A401A405A403A407640063
:103968006404640264066401640564036407E40093
:10397800E404E402E406E401E405E403E4071400D3
:1039880014041402140614011405140314079400F3
:1039980094049402940694019405940394075400A3
:1039A8005404540254065401540554035407D400D3
:1039B800D404D402D406D401D405D403D4073400E3
:1039C8003404340234063401340534033407B400B3
:1039D800B404B402B406B401B405B403B407740063
:1039E8007404740274067401740574037407F40093
:1039F800F404F402F406F401F405F403F4070C00EB
:103A08000C040C020C060C010C050C030C078C00B2
:103A18008C048C028C068C018C058C038C074C0062
:103A28004C044C024C064C014C054C034C07CC0092
:103A3800CC04CC02CC06CC01CC05CC03CC072C00A2
:103A48002C042C022C062C012C052C032C07AC0072
:103A5800AC04AC02AC06AC01AC05AC03AC076C0022
:103A68006C046C026C066C016C056C036C07EC0052
:103A7800EC04EC02EC06EC01EC05EC03EC071C0092
:103A88001C041C021C061C011C051C031C079C00B2
:103A98009C049C029C069C019C059C039C075C0062
:103AA8005C045C025C065C015C055C035C07DC0092
:103AB800DC04DC02DC06DC01DC05DC03DC073C00A2
:103AC8003C043C023C063C013C053C033C07BC0072
:103AD800BC04BC02BC06BC01BC05BC03BC077C0022
:103AE8007C047C027C067C017C057C037C07FC0052
:103AF800FC04FC02FC06FC01FC05FC03FC070200BC
:103B08000204020202060201020502030207820001
:103B180082048202820682018205820382074200B1
:103B28004204420242064201420542034207C200E1
:103B3800C204C202C206C201C205C203C2072200F1
:103B48002204220222062201220522032207A200C1
:103B5800A204A202A206A201A205A203A207620071
:103B68006204620262066201620562036207E200A1
:103B7800E204E202E206E201E205E203E2071200E1
:103B88001204120212061201120512031207920001
:103B980092049202920692019205920392075200B1
:103BA8005204520252065201520552035207D200E1
:103BB800D204D202D206D201D205D203D2073200F1
:103BC8003204320232063201320532033207B200C1
:103BD800B204B202B206B201B205B203B207720071
:103BE8007204720272067201720572037207F200A1
:103BF800F204F202F206F201F205F203F2070A00F9
:103C08000A040A020A060A010A050A030A078A00C0
:103C18008A048A028A068A018A058A038A074A0070
:103C28004A044A024A064A014A054A034A07CA00A0
:103C3800CA04CA02CA06CA01CA05CA03CA072A00B0
:103C48002A042A022A062A012A052A032A07AA0080
:103C5800AA04AA02AA06AA01AA05AA03AA076A0030
:103C68006A046A026A066A016A056A036A07EA0060
:103C7800EA04EA02EA06EA01EA05EA03EA071A00A0
:103C88001A041A021A061A011A051A031A079A00C0
:103C98009A049A029A069A019A059A039A075A0070
:103CA8005A045A025A065A015A055A035A07DA00A0
:103CB800DA04DA02DA06DA01DA05DA03DA073A00B0
:103CC8003A043A023A063A013A053A033A07BA0080
:103CD800BA04BA02BA06BA01BA05BA03BA077A0030
:103CE8007A047A027A067A017A057A037A07FA0060
:103CF800FA04FA02FA06FA01FA05FA03FA070600C4
:103D080006040602060606010605060306078600DF
:103D1800860486028606860186058603860746008F
:103D28004604460246064601460546034607C600BF
:103D3800C604C602C606C601C605C603C6072600CF
:103D48002604260226062601260526032607A6009F
:103D5800A604A602A606A601A605A603A60766004F
:103D68006604660266066601660566036607E6007F
:103D7800E604E602E606E601E605E603E6071600BF
:103D880016041602160616011605160316079600DF
:103D9800960496029606960196059603960756008F
:103DA8005604560256065601560556035607D600BF
:103DB800D604D602D606D601D605D603D6073600CF
:103DC8003604360236063601360536033607B6009F
:103DD800B604B602B606B601B605B603B60776004F
:103DE8007604760276067601760576037607F6007F
:103DF800F604F602F606F601F605F603F6070E00D7
:103E08000E040E020E060E010E050E030E078E009E
:103E18008E048E028E068E018E058E038E074E004E
:103E28004E044E024E064E014E054E034E07CE007E
:103E3800CE04CE02CE06CE01CE05CE03CE072E008E
:103E48002E042E022E062E012E052E032E07AE005E
:103E5800AE04AE02AE06AE01AE05AE03AE076E000E
:103E68006E046E026E066E016E056E036E07EE003E
:103E7800EE04EE02EE06EE01EE05EE03EE071E007E
:103E88001E041E021E061E011E051E031E079E009E
:103E98009E049E029E069E019E059E039E075E004E
:103EA8005E045E025E065E015E055E035E07DE007E
:103EB800DE04DE02DE06DE01DE05DE03DE073E008E
:103EC8003E043E023E063E013E053E033E07BE005E
:103ED800BE04BE02BE06BE01BE05BE03BE077E000E
:103EE8007E047E027E067E017E057E037E07FE003E
:103EF800FE04FE02FE06FE01FE05FE03FE070100AB
:103F08000000803F00000000ECFF7F3FD40FC93A5B
:103F1800B1FF7F3FC70F493B4EFF7F3FC1CB963B69
:103F2800C4FE7F3F890FC93B13FE7F3F3053FB3BE5
:103F380039FD7F3F59CB163C39FC7F3F02ED2F3CC2
:103F480011FB7F3F900E493CC1F97F3F0030623C36
:103F58004AF87F3F4B517B3CACF67F3F38398A3C6F
:103F6800E6F47F3FB6C9963CF8F27F3F1C5AA33C63
:103F7800E3F07F3F69EAAF3CA7EE7F3F9B7ABC3C0A
:103F880043EC7F3FB00AC93CB8E97F3FA69AD53CCD
:103F980005E77F3F7B2AE23C2BE47F3F2DBAEE3CCE
:103FA80029E17F3FB949FB3C00DE7F3F90EC033DB0
:103FB800AFDA7F3F2F340A3D37D77F3FB87B103DBC
:103FC80098D37F3F2CC3163DD1CF7F3F880A1D3D34
:103FD800E2CB7F3FCC51233DCCC77F3FF698293DAC
:103FE8008FC37F3F07E02F3D2ABF7F3FFC26363D2A
:103FF8009EBA7F3FD56D3C3DEAB57F3F91B4423DC7
:104008000FB17F3F2FFB483D0DAC7F3FAF414F3D88
:10401800E3A67F3F0E88553D91A17F3F4CCE5B3D87
:10402800189C7F3F6814623D78967F3F625A683DCE
:10403800B1907F3F38A06E3DC28A7F3FE9E5743D6D
:10404800AB847F3F742B7B3D6D7E7F3F6CB8803D9A
:1040580008787F3F0ADB833D7B717F3F94FD863D77
:10406800C76A7F3F0A208A3DEC637F3F6A428D3DE5
:10407800E95C7F3FB464903DBF557F3FE786933D41
:104088006D4E7F3F05A9963DF4467F3F0ACB993D8B
:10409800543F7F3FF9EC9C3D8D377F3FCF0EA03DCD
:1040A8009D2F7F3F8C30A33D87277F3F3052A63D11
:1040B800491F7F3FBA73A93DE4167F3F2B95AC3D5E
:1040C800580E7F3F80B6AF3DA4057F3FBBD7B23DBA
:1040D800C9FC7E3FDAF8B53DC7F37E3FDD19B93D2F
:1040E8009DEA7E3FC33ABC3D4CE17E3F8D5BBF3DC0
:1040F800D4D77E3F397CC23D34CE7E3FC69CC53D79
:104108006DC47E3F36BDC83D7FBA7E3F86DDCB3D60
:1041180069B07E3FB7FDCE3D2DA67E3FC81DD23D7E
:10412800C99B7E3FB93DD53D3D917E3F895DD83DD8
:104138008B867E3F377DDB3DB17B7E3FC49CDE3D79
:10414800B0707E3F2EBCE13D88657E3F76DBE43D66
:10415800385A7E3F9AFAE73DC14E7E3F9A19EB3DA9
:1041680023437E3F7638EE3D5E377E3F2E57F13D46
:10417800722B7E3FC075F43D5E1F7E3F2C94F73D49
:1041880024137E3F73B2FA3DC2067E3F92D0FD3DB6
:1041980038FA7D3F4577003E88ED7D3F2E06023E8A
:1041A800B1E07D3F0295033EB2D37D3FC223053E79
:1041B8008CC67D3F6EB2063E40B97D3F0541083E44
:1041C800CCAB7D3F86CF093E309E7D3FF35D0B3EF5
:1041D8006E907D3F4AEC0C3E85827D3F8B7A0E3E89
:1041E80074747D3FB708103E3D667D3FCC96113E06
:1041F800DE577D3FCA24133E59497D3FB2B2143E73
:10420800AC3A7D3F8340163ED82B7D3F3DCE173ECE
:10421800DD1C7D3FE05B193EBC0D7D3F6BE91A3E1E
:1042280073FE7C3FDE761C3E03EF7C3F38041E3E67
:104238006CDF7C3F7B911F3EAECF7C3FA51E213EAD
:10424800C9BF7C3FB6AB223EBDAF7C3FAD38243EF4
:104258008A9F7C3F8CC5253E318F7C3F5152273E3B
:10426800B07E7C3FFCDE283E086E7C3F8D6B2A3E8C
:104278003A5D7C3F04F82B3E444C7C3F61842D3EE4
:10428800283B7C3FA2102F3EE5297C3FC99C303E4D
:104298007A187C3FD428323EE9067C3FC4B4333ECA
:1042A80031F57B3F9840353E53E37B3F50CC363E5B
:1042B8004DD17B3FEC57383E20BF7B3F6CE3393E06
:1042C800CDAC7B3FCF6E3B3E539A7B3F15FA3C3ECD
:1042D800B2877B3F3E853E3EEA747B3F4910403EB5
:1042E800FC617B3F379B413EE74E7B3F0726433EC1
:1042F800AB3B7B3FB9B0443E48287B3F4D3B463EF5
:10430800BE147B3FC2C5473E0E017B3F1850493E55
:1043180037ED7A3F4FDA4A3E3AD97A3F67644C3EE6
:1043280016C57A3F60EE4D3ECBB07A3F38784F3EA7
:10433800599C7A3FF101513EC1877A3F898B523EA1
:1043480002737A3F0115543E1C5E7A3F589E553ED3
:1043580010497A3F8F27573EDD337A3FA4B0583E45
:10436800841E7A3F97395A3E04097A3F6AC25B3EF7
:104378005EF3793F1A4B5D3E91DD793FA8D35E3EEF
:104388009DC7793F135C603E83B1793F5CE4613E31
:10439800439B793F836C633EDC84793F86F4643EBB
:1043A8004E6E793F667C663E9A57793F2204683E96
:1043B800C040793FBA8B693EBF29793F2F136B3EC6
:1043C8009812793F7F9A6C3E4AFB783FAB216E3E4C
:1043D800D6E3783FB2A86F3E3BCC783F942F713E2E
:1043E8007BB4783F51B6723E939C783FE83C743E6C
:1043F8008684783F5AC3753E526C783FA649773E0B
:10440800F853783FCCCF783E773B783FCB557A3E10
:10441800D122783FA4DB7B3E040A783F56617D3E7B
:1044280010F1773FE1E67E3EF7D7773F2236803EB0
:10443800B7BE773FC0F8803E51A5773F4ABB813E63
:10444800C58B773FC07D823E1372773F2240833E03
:104458003A58773F7002843E3C3E773FAAC4843E78
:104468001724773FCE86853ECC09773FDF48863EC6
:104478005BEF763FDA0A873EC4D4763FC1CC873EED
:1044880007BA763F938E883E249F763F5050893EE8
:104498001B84763FF8118A3EEC68763F8AD38A3EC1
:1044A800974D763F07958B3E1B32763F6E568C3E76
:1044B8007A16763FC0178D3EB3FA753FFCD88D3E0D
:1044C800C6DE753F229A8E3EB3C2753F325B8F3E81
:1044D8007BA6753F2C1C903E1C8A753F10DD903ED4
:1044E800976D753FDD9D913EED50753F945E923E10
:1044F8001D34753F351F933E2717753FBFDF933E29
:104508000BFA743F31A0943EC9DC743F8D60953E30
:1045180062BF743FD220963ED5A1743F00E1963E1B
:104528002284743F17A1973E4966743F1661983EEE
:104538004B48743FFE20993E272A743FCEE0993EAF
:10454800DD0B743F86A09A3E6EED733F27609B3E5D
:10455800D9CE733FAF1F9C3E1FB0733F20DF9C3EF8
:104568003F91733F789E9D3E3972733FB85D9E3E82
:104578000E53733FDF1C9F3EBE33733FEEDB9F3EFF
:104588004714733FE59AA03EACF4723FC259A13E6E
:10459800EBD4723F8718A23E04B5723F33D7A23ED0
:1045A800F894723FC595A33EC774723F3F54A43E2A
:1045B8007054723F9F12A53EF433723FE5D0A53E7A
:1045C8005213723F128FA63E8CF2713F254DA73EC3
:1045D8009FD1713F1F0BA83E8EB0713FFEC8A83E09
:1045E800578F713FC486A93EFB6D713F6F44AA3E49
:1045F8007A4C713F0102AB3ED42A713F77BFAB3E84
:104608000809713FD47CAC3E17E7703F153AAD3EC0
:1046180002C5703F3CF7AD3EC6A2703F49B4AE3EFE
:104628006680703F3A71AF3EE15D703F102EB03E3C
:10463800373B703FCBEAB03E6718703F6BA7B13E7F
:1046480073F56F3FEF63B23E5AD26F3F5820B33EC7
:104658001BAF6F3FA5DCB33EB88B6F3FD698B43E17
:1046680030686F3FEC54B53E83446F3FE610B63E6A
:10467800B0206F3FC3CCB63EBAFC6E3F8488B73ECD
:104688009ED86E3F2A44B83E5DB46E3FB2FFB83E36
:10469800F88F6E3F1EBBB93E6D6B6E3F6E76BA3EAD
:1046A800BE466E3FA031BB3EEB216E3FB6ECBB3E33
:1046B800F2FC6D3FAFA7BC3ED5D76D3F8B62BD3EC8
:1046C80093B26D3F4A1DBE3E2D8D6D3FEBD7BE3E6A
:1046D800A1676D3F6F92BF3EF2416D3FD54CC03E22
:1046E8001D1C6D3F1E07C13E24F66C3F48C1C13EEC
:1046F80007D06C3F557BC23EC5A96C3F4435C33ECD
:104708005E836C3F15EFC33ED45C6C3FC8A8C43EC3
:1047180024366C3F5C62C53E500F6C3FD21BC63ED0
:1047280058E86B3F29D5C63E3BC16B3F628EC73EFA
:10473800FB996B3F7C47C83E95726B3F7700C93E3B
:104748000C4B6B3F53B9C93E5E236B3F1072CA3E98
:104758008CFB6A3FAE2ACB3E95D36A3F2CE3CB3E17
:104768007BAB6A3F8B9BCC3E3C836A3FCA53CD3EB2
:10477800D95A6A3FEA0BCE3E52326A3FEAC3CE3E6E
:10478800A7096A3FCA7BCF3ED7E0693F8A33D03E4C
:10479800E4B7693F2AEBD03ECC8E693FAAA2D13E4E
:1047A8009165693F095AD23E323C693F4811D33E70
:1047B800AE12693F67C8D33E07E9683F647FD43EBD
:1047C8003CBF683F4136D53E4C95683FFDECD53E31
:1047D800396B683F99A3D63E0341683F135AD73EC9
:1047E800A816683F6B10D83E2AEC673FA3C6D83E90
:1047F80087C1673FB97CD93EC196673FAD32DA3E83
:10480800D86B673F80E8DA3ECA40673F319EDB3E9F
:104818009915673FC153DC3E45EA663F2E09DD3EE8
:10482800CCBE663F79BEDD3E3093663FA273DE3E66
:104838007167663FA928DF3E8E3B663F8DDDDF3E10
:10484800880F663F4F92E03E5EE3653FEE46E13EED
:1048580010B7653F6AFBE13EA08A653FC4AFE23E00
:104868000B5E653FFA63E33E5431653F0E18E43E44
:104878007904653FFECBE43E7BD7643FCB7FE53EC2
:1048880059AA643F7533E63E147D643FFBE6E63E75
:10489800AC4F643F5D9AE73E2122643F9C4DE83E61
:1048A80073F4633FB700E93EA1C6633FAEB3E93E88
:1048B800AC98633F8166EA3E956A633F3019EB3EE8
:1048C8005A3C633FBBCBEB3EFC0D633F217EEC3E85
:1048D8007BDF623F6330ED3ED7B0623F80E2ED3E62
:1048E8001082623F7994EE3E2653623F4C46EF3E7B
:1048F8001A24623FFBF7EF3EEAF4613F85A9F03ED8
:1049080098C5613FEA5AF13E2296613F290CF23E72
:104918008A66613F43BDF23ED036613F386EF33E52
:10492800F206613F071FF43EF2D6603FB1CFF43E76
:10493800CFA6603F3580F53E8976603F9330F63EDE
:104948002146603FCBE0F63E9615603FDC90F73E8F
:10495800E9E45F3FC840F83E19B45F3F8EF0F83E87
:1049680027835F3F2DA0F93E12525F3FA54FFA3EC5
:10497800DB205F3FF7FEFA3E81EF5E3F22AEFB3E53
:1049880005BE5E3F275DFC3E678C5E3F040CFD3E26
:10499800A65A5E3FBBBAFD3EC3285E3F4A69FE3E4B
:1049A800BEF65D3FB217FF3E97C45D3FF3C5FF3EBD
:1049B8004D925D3F063A003FE15F5D3FFF90003F4B
:1049C800532D5D3FE4E7003FA3FA5C3FB53E013F4E
:1049D800D1C75C3F7395013FDD945C3F1CEC013F00
:1049E800C7615C3FB142023F8E2E5C3F3299023F65
:1049F80034FB5B3F9FEF023FB8C75B3FF845033F7F
:104A08001A945B3F3D9C033F5A605B3F6DF2033F46
:104A1800792C5B3F8948043F75F85A3F919E043FC3
:104A280050C45A3F84F4043F09905A3F624A053FF4
:104A3800A05B5A3F2CA0053F16275A3FE2F5053FD9
:104A48006AF2593F824B063F9CBD593F0EA1063F73
:104A5800AD88593F86F6063F9C53593FE84B073FC0
:104A68006A1E593F36A1073F17E9583F6FF6073FBF
:104A7800A1B3583F924B083F0B7E583FA1A0083F77
:104A88005348583F9BF5083F7912583F7F4A093FE2
:104A98007FDC573F4E9F093F63A6573F09F4093F04
:104AA8002670573FAD480A3FC739573F3D9D0A3FDB
:104AB8004803573FB7F10A3FA7CC563F1C460B3F68
:104AC800E595563F6B9A0B3F025F563FA5EE0B3FAD
:104AD800FE27563FC9420C3FD9F0553FD7960C3FA9
:104AE80093B9553FD0EA0C3F2C82553FB33E0D3F5A
:104AF800A44A553F81920D3FFB12553F38E60D3FC2
:104B080031DB543FDA390E3F47A3543F658D0E3FE2
:104B18003B6B543FDBE00E3F0F33543F3B340F3FBA
:104B2800C3FA533F84870F3F55C2533FB8DA0F3F4C
:104B3800C789533FD52D103F1851533FDC80103F94
:104B48004918533FCDD3103F59DF523FA726113F95
:104B580049A6523F6B79113F186D523F19CC113F4E
:104B6800C633523FB01E123F54FA513F3071123FC4
:104B7800C2C0513F9AC3123F1087513FEE15133FF1
:104B88003D4D513F2A68133F4A13513F50BA133FD6
:104B980037D9503F5F0C143F039F503F585E143F76
:104BA800AF64503F39B0143F3B2A503F0402153FD1
:104BB800A8EF4F3FB753153FF4B44F3F54A5153FE7
:104BC8001F7A4F3FD9F6153F2B3F4F3F4748163FB7
:104BD80017044F3F9F99163FE4C84E3FDFEA163F40
:104BE800908D4E3F073C173F1C524E3F188D173F84
:104BF80089164E3F12DE173FD5DA4D3FF52E183F86
:104C0800029F4D3FC07F183F10634D3F73D0183F40
:104C1800FD264D3F0F21193FCBEA4C3F9471193FB8
:104C280079AE4C3F00C2193F08724C3F55121A3FEB
:104C380078354C3F93621A3FC7F84B3FB8B21A3FDA
:104C4800F8BB4B3FC6021B3F097F4B3FBB521B3F84
:104C5800FA414B3F99A21B3FCC044B3F5FF21B3FED
:104C68007FC74A3F0C421C3F138A4A3FA2911C3F10
:104C7800874C4A3F1FE11C3FDC0E4A3F84301D3FF2
:104C880012D1493FD17F1D3F2993493F06CF1D3F90
:104C98002155493F221E1E3FFA16493F266D1E3FE9
:104CA800B3D8483F12BC1E3F4E9A483FE50A1F3F03
:104CB800CA5B483F9F591F3F271D483F41A81F3FD8
:104CC80065DE473FCBF61F3F849F473F3B45203F6C
:104CD8008560473F9393203F6721473FD2E1203FBC
:104CE8002AE2463FF92F213FCEA2463F067E213FCA
:104CF8005463463FFBCB213FBB23463FD719223F96
:104D080003E4453F9967223F2DA4453F43B5223F21
:104D18003964453FD302233F2624453F4B50233F68
:104D2800F5E3443FA99D233FA5A3443FEEEA233F73
:104D38003763443F1A38243FAB22443F2C85243F35
:104D480000E2433F25D2243F38A1433F041F253FBB
:104D58005160433FCB6B253F4C1F433F77B8253FFE
:104D680029DE423F0A05263FE89C423F8451263F00
:104D7800895B423FE39D263F0B1A423F2AEA263FC2
:104D880070D8413F5636273FB796413F6882273F44
:104D9800E154413F61CE273FEC12413F401A283F82
:104DA800DAD0403F0566283FA98E403FB0B1283F82
:104DB8005C4C403F41FD283FF009403FB848293F3F
:104DC80067C73F3F1594293FC0843F3F57DF293FBE
:104DD800FC413F3F802A2A3F1BFF3E3F8E752A3FFA
:104DE8001BBC3E3F82C02A3FFF783E3F5B0B2B3FF8
:104DF800C5353E3F1B562B3F6EF23D3FBFA02B3FB4
:104E0800F9AE3D3F4AEB2B3F676B3D3FB9352C3F31
:104E1800B8273D3F0F802C3FECE33C3F49CA2C3F6D
:104E280003A03C3F69142D3FFC5B3C3F6F5E2D3F68
:104E3800D9173C3F59A82D3F98D33B3F29F22D3F26
:104E48003B8F3B3FDE3B2E3FC14A3B3F78852E3FA1
:104E580029063B3FF7CE2E3F75C13A3F5B182F3FDF
:104E6800A47C3A3FA5612F3FB7373A3FD3AA2F3FDB
:104E7800ACF2393FE6F32F3F85AD393FDE3C303F9A
:104E88004268393FBB85303FE122393F7CCE303F15
:104E980065DD383F2217313FCB97383FAD5F313F53
:104EA8001652383F1DA8313F430C383F71F0313F4F
:104EB80055C6373FAA38323F4A80373FC780323F0E
:104EC800233A373FC9C8323FDFF3363FAF10333F8D
:104ED8007FAD363F7A58333F0467363F29A0333FCA
:104EE8006C20363FBCE7333FB8D9353F342F343FC9
:104EF800E792353F8F76343FFB4B353FCFBD343F8C
:104F0800F304353FF304353FCFBD343FFB4B353F0A
:104F18008F76343FE792353F342F343FB8D9353F49
:104F2800BCE7333F6C20363F29A0333F0467363F48
:104F38007A58333F7FAD363FAF10333FDFF3363F0C
:104F4800C9C8323F233A373FC780323F4A80373F8C
:104F5800AA38323F55C6373F71F0313F430C383FCE
:104F68001DA8313F1652383FAD5F313FCB97383FD0
:104F78002217313F65DD383F7CCE303FE122393F93
:104F8800BB85303F4268393FDE3C303F85AD393F15
:104F9800E6F32F3FACF2393FD3AA2F3FB7373A3F5A
:104FA800A5612F3FA47C3A3F5B182F3F75C13A3F5C
:104FB800F7CE2E3F29063B3F78852E3FC14A3B3F1F
:104FC800DE3B2E3F3B8F3B3F29F22D3F98D33B3FA3
:104FD80059A82D3FD9173C3F6F5E2D3FFC5B3C3FE6
:104FE80069142D3F03A03C3F49CA2C3FECE33C3FEA
:104FF8000F802C3FB8273D3FB9352C3F676B3D3FAD
:105008004AEB2B3FF9AE3D3FBFA02B3F6EF23D3F31
:105018001B562B3FC5353E3F5B0B2B3FFF783E3F72
:1050280082C02A3F1BBC3E3F8E752A3F1BFF3E3F76
:10503800802A2A3FFC413F3F57DF293FC0843F3F3A
:105048001594293F67C73F3FB848293FF009403FBB
:1050580041FD283F5C4C403FB0B1283FA98E403FFE
:105068000566283FDAD0403F401A283FEC12413FFE
:1050780061CE273FE154413F6882273FB796413FC1
:105088005636273F70D8413F2AEA263F0B1A423F3F
:10509800E39D263F895B423F8451263FE89C423F7F
:1050A8000A05263F29DE423F77B8253F4C1F433F7C
:1050B800CB6B253F5160433F041F253F38A1433F39
:1050C80025D2243F00E2433F2C85243FAB22443FB6
:1050D8001A38243F3763443FEEEA233FA5A3443FF1
:1050E800A99D233FF5E3443F4B50233F2624453FEA
:1050F800D302233F3964453F43B5223F2DA4453FA2
:105108009967223F03E4453FD719223FBB23463F17
:10511800FBCB213F5463463F067E213FCEA2463F4C
:10512800F92F213F2AE2463FD2E1203F6721473F3E
:105138009393203F8560473F3B45203F849F473FEF
:10514800CBF61F3F65DE473F41A81F3F271D483F5D
:105158009F591F3FCA5B483FE50A1F3F4E9A483F89
:1051680012BC1E3FB3D8483F266D1E3FFA16493F72
:10517800221E1E3F2155493F06CF1D3F2993493F17
:10518800D17F1D3F12D1493F84301D3FDC0E4A3F7D
:105198001FE11C3F874C4A3FA2911C3F138A4A3F9C
:1051A8000C421C3F7FC74A3F5FF21B3FCC044B3F7A
:1051B80099A21B3FFA414B3FBB521B3F097F4B3F14
:1051C800C6021B3FF8BB4B3FB8B21A3FC7F84B3F6C
:1051D80093621A3F78354C3F55121A3F08724C3F7C
:1051E80000C2193F79AE4C3F9471193FCBEA4C3F4E
:1051F8000F21193FFD264D3F73D0183F10634D3FD7
:10520800C07F183F029F4D3FF52E183FD5DA4D3F1E
:1052180012DE173F89164E3F188D173F1C524E3F1E
:10522800073C173F908D4E3FDFEA163FE4C84E3FDC
:105238009F99163F17044F3F4748163F2B3F4F3F54
:10524800D9F6153F1F7A4F3F54A5153FF4B44F3F89
:10525800B753153FA8EF4F3F0402153F3B2A503F75
:1052680039B0143FAF64503F585E143F039F503F1E
:105278005F0C143F37D9503F50BA133F4A13513F80
:105288002A68133F3D4D513FEE15133F1087513F9C
:105298009AC3123FC2C0513F3071123F54FA513F76
:1052A800B01E123FC633523F19CC113F186D523F02
:1052B8006B79113F49A6523FA726113F59DF523F4C
:1052C800CDD3103F4918533FDC80103F1851533F4E
:1052D800D52D103FC789533FB8DA0F3F55C2533F0A
:1052E80084870F3FC3FA533F3B340F3F0F33543F7C
:1052F800DBE00E3F3B6B543F658D0E3F47A3543FA9
:10530800DA390E3F31DB543F38E60D3FFB12553F8B
:1053180081920D3FA44A553FB33E0D3F2C82553F25
:10532800D0EA0C3F93B9553FD7960C3FD9F0553F7B
:10533800C9420C3FFE27563FA5EE0B3F025F563F82
:105348006B9A0B3FE595563F1C460B3FA7CC563F43
:10535800B7F10A3F4803573F3D9D0A3FC739573FBA
:10536800AD480A3F2670573F09F4093F63A6573FE7
:105378004E9F093F7FDC573F7F4A093F7912583FCC
:105388009BF5083F5348583FA1A0083F0B7E583F64
:10539800924B083FA1B3583F6FF6073F17E9583FB4
:1053A80036A1073F6A1E593FE84B073F9C53593FB8
:1053B80086F6063FAD88593F0EA1063F9CBD593F72
:1053C800824B063F6AF2593FE2F5053F16275A3FDE
:1053D8002CA0053FA05B5A3F624A053F09905A3FFF
:1053E80084F4043F50C45A3F919E043F75F85A3FD5
:1053F8008948043F792C5B3F6DF2033F5A605B3F5D
:105408003D9C033F1A945B3FF845033FB8C75B3F99
:105418009FEF023F34FB5B3F3299023F8E2E5C3F89
:10542800B142023FC7615C3F1CEC013FDD945C3F29
:105438007395013FD1C75C3FB53E013FA3FA5C3F7E
:10544800E4E7003F532D5D3FFF90003FE15F5D3F84
:10545800063A003F4D925D3FF3C5FF3E97C45D3F5E
:10546800B217FF3EBEF65D3F4A69FE3EC3285E3F67
:10547800BBBAFD3EA65A5E3F040CFD3E678C5E3FFC
:10548800275DFC3E05BE5E3F22AEFB3E81EF5E3FE0
:10549800F7FEFA3EDB205F3FA54FFA3E12525F3F10
:1054A8002DA0F93E27835F3F8EF0F83E19B45F3F89
:1054B800C840F83EE9E45F3FDC90F73E9615603F50
:1054C800CBE0F63E2146603F9330F63E8976603F5A
:1054D8003580F53ECFA6603FB1CFF43EF2D6603FAF
:1054E800071FF43EF206613F386EF33ED036613F47
:1054F80043BDF23E8A66613F290CF23E2296613F27
:10550800EA5AF13E98C5613F85A9F03EEAF4613F49
:10551800FBF7EF3E1A24623F4C46EF3E2653623FAC
:105528007994EE3E1082623F80E2ED3ED7B0623F52
:105538006330ED3E7BDF623F217EEC3EFC0D633F36
:10554800BBCBEB3E5A3C633F3019EB3E956A633F59
:105558008166EA3EAC98633FAEB3E93EA1C6633FBD
:10556800B700E93E73F4633F9C4DE83E2122643F57
:105578005D9AE73EAC4F643FFBE6E63E147D643F30
:105588007533E63E59AA643FCB7FE53E7BD7643F3F
:10559800FECBE43E7904653F0E18E43E5431653F86
:1055A800FA63E33E0B5E653FC4AFE23EA08A653F07
:1055B8006AFBE13E10B7653FEE46E13E5EE3653FBC
:1055C8004F92E03E880F663F8DDDDF3E8E3B663FA3
:1055D800A928DF3E7167663FA273DE3E3093663FBF
:1055E80079BEDD3ECCBE663F2E09DD3E45EA663F0C
:1055F800C153DC3E9915673F319EDB3ECA40673F89
:1056080080E8DA3ED86B673FAD32DA3EC196673F35
:10561800B97CD93E87C1673FA3C6D83E2AEC673F0D
:105628006B10D83EA816683F135AD73E0341683F0F
:1056380099A3D63E396B683FFDECD53E4C95683F43
:105648004136D53E3CBF683F647FD43E07E9683F9A
:1056580067C8D33EAE12693F4811D33E323C693F1A
:10566800095AD23E9165693FAAA2D13ECC8E693FC4
:105678002AEBD03EE4B7693F8A33D03ED7E0693F92
:10568800CA7BCF3EA7096A3FEAC3CE3E52326A3F81
:10569800EA0BCE3ED95A6A3FCA53CD3E3C836A3F95
:1056A8008B9BCC3E7BAB6A3F2CE3CB3E95D36A3FCA
:1056B800AE2ACB3E8CFB6A3F1072CA3E5E236B3F1C
:1056C80053B9C93E0C4B6B3F7700C93E95726B3F8F
:1056D8007C47C83EFB996B3F628EC73E3BC16B3F20
:1056E80029D5C63E58E86B3FD21BC63E500F6C3FCB
:1056F8005C62C53E24366C3FC8A8C43ED45C6C3F8F
:1057080015EFC33E5E836C3F4435C33EC5A96C3F6D
:10571800557BC23E07D06C3F48C1C13E24F66C3F62
:105728001E07C13E1D1C6D3FD54CC03EF2416D3F6A
:105738006F92BF3EA1676D3FEBD7BE3E2D8D6D3F8B
:105748004A1DBE3E93B26D3F8B62BD3ED5D76D3FBD
:10575800AFA7BC3EF2FC6D3FB6ECBB3EEB216E3F03
:10576800A031BB3EBE466E3F6E76BA3E6D6B6E3F55
:105778001EBBB93EF88F6E3FB2FFB83E5DB46E3FB8
:105788002A44B83E9ED86E3F8488B73EBAFC6E3F26
:10579800C3CCB63EB0206F3FE610B63E83446F3FA1
:1057A800EC54B53E30686F3FD698B43EB88B6F3F27
:1057B800A5DCB33E1BAF6F3F5820B33E5AD26F3FB4
:1057C800EF63B23E73F56F3F6BA7B13E6718703F4A
:1057D800CBEAB03E373B703F102EB03EE15D703FE4
:1057E8003A71AF3E6680703F49B4AE3EC6A2703F84
:1057F8003CF7AD3E02C5703F153AAD3E17E7703F26
:10580800D47CAC3E0809713F77BFAB3ED42A713FC8
:105818000102AB3E7A4C713F6F44AA3EFB6D713F6B
:10582800C486A93E578F713FFEC8A83E8EB0713F0F
:105838001F0BA83E9FD1713F254DA73E8CF2713FAB
:10584800128FA63E5213723FE5D0A53EF433723F45
:105858009F12A53E7054723F3F54A43EC774723FD6
:10586800C595A33EF894723F33D7A23E04B5723F64
:105878008718A23EEBD4723FC259A13EACF4723FE6
:10588800E59AA03E4714733FEEDB9F3EBE33733F5D
:10589800DF1C9F3E0E53733FB85D9E3E3972733FC7
:1058A800789E9D3E3F91733F20DF9C3E1FB0733F23
:1058B800AF1F9C3ED9CE733F27609B3E6EED733F72
:1058C80086A09A3EDD0B743FCEE0993E272A743FAE
:1058D800FE20993E4B48743F1661983E4966743FD6
:1058E80017A1973E2284743F00E1963ED5A1743FEC
:1058F800D220963E62BF743F8D60953EC9DC743FEE
:1059080031A0943E0BFA743FBFDF933E2717753FD3
:10591800351F933E1D34753F945E923EED50753FA2
:10592800DD9D913E976D753F10DD903E1C8A753F59
:105938002C1C903E7BA6753F325B8F3EB3C2753FF1
:10594800229A8E3EC6DE753FFCD88D3EB3FA753F6F
:10595800C0178D3E7A16763F6E568C3E1B32763FC8
:1059680007958B3E974D763F8AD38A3EEC68763F03
:10597800F8118A3E1B84763F5050893E249F763F1B
:10598800938E883E07BA763FC1CC873EC4D4763F13
:10599800DA0A873E5BEF763FDF48863ECC09773FE1
:1059A800CE86853E1724773FAAC4843E3C3E773F87
:1059B8007002843E3A58773F2240833E1372773F05
:1059C800C07D823EC58B773F4ABB813E51A5773F5C
:1059D800C0F8803EB7BE773F2236803EF7D7773F84
:1059E800E1E67E3E10F1773F56617D3E040A783F3E
:1059F800A4DB7B3ED122783FCB557A3E773B783F7C
:105A0800CCCF783EF853783FA649773E526C783F22
:105A18005AC3753E8684783FE83C743E939C783F31
:105A280051B6723E7BB4783F942F713E3BCC783FA1
:105A3800B2A86F3ED6E3783FAB216E3E4AFB783F73
:105A48007F9A6C3E9812793F2F136B3EBF29793F9E
:105A5800BA8B693EC040793F2204683E9A57793F25
:105A6800667C663E4E6E793F86F4643EDC84793F00
:105A7800836C633E439B793F5CE4613E83B1793F2D
:105A8800135C603E9DC7793FA8D35E3E91DD793FA8
:105A98001A4B5D3E5EF3793F6AC25B3E04097A3F6A
:105AA80097395A3E841E7A3FA4B0583EDD337A3F78
:105AB8008F27573E10497A3F589E553E1C5E7A3FC5
:105AC8000115543E02737A3F898B523EC1877A3F53
